:020000040000FA
:060000003FEF3DF012008D
:08000800D0BE3CEF3DF068EFB3
:0400100032F01200B8
:0600180068EF32F0120057
:06002A000100FE7A000057
:08003000FF0200001E000000A9
:08003800A9EC31F0EAEC04F040
:10004000FDEC04F07AEC05F05FEC04F0E0EC13F06A
:1000500046EC05F060EC05F0AAEC31F0120001016D
:1000600088050EE101018051146E156AD890155073
:1000700004E6FF0E145C000E155802E20101802B0D
:100080001200D9CFE6FFDACFE6FFE1CFD9FFE2CF0A
:10009000DAFFE6520101880573E1C00EF214DF6E4B
:1000A000800ED0143F09F21601018051000802E2CF
:1000B000010180070101805161E1010182515EE18E
:1000C000660E146E6E0E156E000E166E85C117F05C
:1000D000186A196A14501724F36E15501820F46E1C
:1000E00016501920F86EF4CFF7FFF3CFF6FF080093
:1000F000F5CF81F1660E156E6E0E166E000E176E40
:1001000001018151EA6A860FE96E010EEA22EFCF02
:1001100018F0196A1A6A15501824F36E165019202F
:10012000F46E17501A20F86EF4CFF7FFF3CFF6FFF6
:100130000800F5CF14F001018151080DF35014248B
:100140000101846F010183510101845D17E0010108
:100150008451E96EEA6AD890E936EA36FA0EE92661
:10016000010EEA22EECFF6F1EDCFF7F10001B02B50
:10017000000EB123B223B323B1EC32F0DF50F21200
:10018000E552E552E5CFDAFFE7CFD9FF1200D9CF2C
:10019000E6FFDACFE6FFE1CFD9FFE2CFDAFFE652A2
:1001A000E652010188515CE1660E146E6E0E156E0A
:1001B000000E166E85C117F0186A196A14501724BC
:1001C000F36E15501820F46E16501920F86EF4CF07
:1001D000F7FFF3CFF6FF0800F550DF6E660E146EE2
:1001E0006E0E156E000E166EDF50EA6A860FE96E0F
:1001F000010EEA22EFCF17F0186A196A145017247B
:10020000F36E15501820F46E16501920F86EF4CFC6
:10021000F7FFF3CFF6FF0800010EF5CFDBFF010E6D
:10022000DBCFE6FFDF50080DF350E552E724010174
:10023000846F84C183F101018451E96EEA6AD89028
:10024000E936EA36FA0EE926010EEA22EECFF6F199
:10025000EDCFF7F1F6C1F2F1F7C1F3F1ABEC31F00C
:10026000E552E552E552E5CFDAFFE7CFD9FF1200BC
:10027000D9CFE6FFDACFE6FFE1CFD9FFE2CFDAFF51
:10028000E652020EE66EE66ACDEC1CF0E552E5524F
:10029000C00EF214DF6E800ED0143F09F216010179
:1002A0008A6B8B6B8C6B8D6BDF50F212640EE66E7B
:1002B000E66ACDEC1CF0E552E552C00EF214DF6E9A
:1002C000800ED0143F09F2168AC113F18BC114F1CC
:1002D0008CC115F18DC116F10101010E1B6FDF50AC
:1002E000F212E552E552E5CFDAFFE7CFD9FF12006F
:1002F000D9CFE6FFDACFE6FFE1CFD9FFE2CFDAFFD1
:10030000E652E652E65299EC31F00101880501E02F
:1003100095D0010EF8C1DBFF020EF9C1DBFF010E23
:10032000DBCFE9FF020EDBCFEAFF0F0EE926000E5E
:10033000EA22EF500F0801E181D0C00EF214DF6E07
:10034000800ED0143F09F216010EDBCFE9FF020E3A
:10035000DBCFEAFF0C0EE926000EEA22EE50ED108C
:100360005AE0010EDBCFE9FF020EDBCFEAFF0C0EF5
:10037000E926000EEA22EE06000EED5AEECF14F04A
:10038000EDCF15F01450151046E1010EDBCFE9FF5B
:10039000020EDBCFEAFF0E0EE926000EEA22EF5036
:1003A000080B2CE1010EDBCFE9FF020EDBCFEAFFE9
:1003B000130EE926000EEA22EF5001018513010E0B
:1003C000DBCFE9FF020EDBCFEAFF120EE926000EBB
:1003D000EA22EFCF14F0010EDBCFE9FF020EDBCFF4
:1003E000EAFF110EE926000EEA22EF50EA6A860FB4
:1003F000E96E010EEA221450EF120DD0010EDBCF90
:10040000E9FF020EDBCFEAFF0C0EE926000EEA221E
:10041000010EEE6EED6A010EDBCFE9FF020EDBCFBF
:10042000EAFF020EE926000EEA22010EEECFDBFF04
:10043000020EEDCFDBFFDF50F21271D7E552E5522D
:10044000E552E552E5CFDAFFE7CFD9FF1200FC0E07
:10045000F36EF46A00D012001200D9CFE6FFDACFB3
:10046000E6FFE1CFD9FFE2CFDAFF070EE12402E396
:10047000E168E652E16E660E146E6E0E156E000EA9
:10048000166EFC0EDBCFE9FFFD0EDBCFEAFFEE526E
:10049000EFCF17F0186A196A14501724F36E15502D
:1004A0001820F46E16501920F86EF4CFF7FFF3CF32
:1004B000F6FF0800030EF5CFDBFF5E0E146E6E0E26
:1004C000156E000E166E030EDBCF17F0186A196A50
:1004D00014501724F36E15501820F46E165019207E
:1004E000F86EF4CFF7FFF3CFF6FF0800050EF5CF57
:1004F000DBFF660E146E6E0E156E000E166EFC0E91
:10050000DBCFE9FFFD0EDBCFEAFF060EE926000E8A
:10051000EA22E9CF1AF0EACF1BF0030EDB500F01FD
:100520001A24E96E000E1B20EA6EEFCF17F0186A4E
:10053000196A14501724F36E15501820F46E1650D3
:100540001920F86EF4CFF7FFF3CFF6FF0800020E84
:10055000F5CFDBFF5E0E146E6E0E156E000E166E7E
:10056000020EDBCF17F0186A196A14501724F36EC5
:1005700015501820F46E16501920F86EF4CFF7FFBE
:10058000F3CFF6FF0800040EF5CFDBFF020EDBCF42
:10059000E6FF030EDB50080DF350E552E724E76E4B
:1005A000060EE7CFDBFF040EDB1C166EFC0EDBCF66
:1005B000E9FFFD0EDBCFEAFF060EE926000EEA2278
:1005C000E9CF14F0EACF15F0030EDB500F0114242D
:1005D000E96E000E1520EA6E1650EF16EF500CE192
:1005E000050EDB1C146EFC0EDBCFE9FFFD0EDBCF2E
:1005F000EAFFEE521450EF16060EEA6ADB34FE0BE9
:10060000EA36E96EFA0EE926010EEA22EECFDEFFA7
:10061000EDCFDDFFDECFE9FFDDCFEAFF0C0EEB6AA9
:100620000D0EEB6ADECFE9FFDDCFEAFF060EEB6AC7
:10063000070EEB6AFA0EDBCF08F0FB0EDBCF09F0FA
:10064000FA0E08C0DBFFFB0E09C0DBFFF90EDB1C56
:10065000146EDECFE9FFDDCFEAFF0E0EE926000EB5
:10066000EA221450EF16DECFE9FFDDCFEAFF0E0ECF
:10067000E926000EEA22EF500EE1050EDB500101E3
:100680008513030EDB50EA6A860FE96E010EEA223B
:10069000040EDB50EF12060EDB5000D0146E070E76
:1006A000E15C02E2E16AE552E16E1450E552E5CF09
:1006B000DAFFE7CFD9FF1200D9CFE6FFDACFE6FFA6
:1006C000E1CFD9FFE2CFDAFFF2C1E9FFF3C1EAFFE0
:1006D000060EE926000EEA22FC0EDBCFEEFFFD0E31
:1006E000DBCFEDFFF2C1E9FFF3C1EAFF120EEB50E1
:1006F000E81C146EF2C1E9FFF3C1EAFF110EEB50E2
:10070000EA6A860FE96E010EEA221450EF16EF50E6
:1007100009E1F2C1E9FFF3C1EAFF130EEB50E81C57
:1007200001018517F2C1E9FFF3C1EAFF120EEB5098
:10073000166EFC0EDBCFE9FFFD0EDBCFEAFF060EE7
:10074000E926000EEA22E9CF14F0EACF15F0F2C153
:10075000E9FFF3C1EAFF110EEB500F011424E96E1B
:10076000000E1520EA6E1650EF12F2C1E9FFF3C138
:10077000EAFF130EEB50146EFC0EDBCFE9FFFD0E0B
:10078000DBCFEAFFEE521450EF12E552E5CFDAFF6D
:10079000E7CFD9FF1200D9CFE6FFDACFE6FFE1CFEE
:1007A000D9FFE2CFDAFFF2C1E9FFF3C1EAFF120E8F
:1007B000EB50E81C166EFC0EDBCFE9FFFD0EDBCF25
:1007C000EAFF060EE926000EEA22E9CF14F0EACF8E
:1007D00015F0F2C1E9FFF3C1EAFF110EEB500F0172
:1007E0001424E96E000E1520EA6E1650EF16EF5035
:1007F00011E1F2C1E9FFF3C1EAFF130EEB50E81C6F
:10080000146EFC0EDBCFE9FFFD0EDBCFEAFFEE52EC
:100810001450EF16F2C1E9FFF3C1EAFF0E0EE9260C
:10082000000EEA22EF6AF2C1E9FFF3C1EAFF060E09
:10083000EB6A070EEB6AE552E5CFDAFFE7CFD9FFA7
:100840001200D9CFE6FFDACFE6FFE1CFD9FFE2CF42
:10085000DAFFE652E652FC0EDBCFE9FFFD0EDBCFFE
:10086000EAFFEE52EF6AFC0EDBCFE9FFFD0EDBCFB5
:10087000EAFF060EE926000EEA22E9CF14F0EACFDD
:1008800015F014C0DEFF15C0DDFFDFCFE9FFDF2A62
:10089000010EDBCFEAFF01E3DB2AEF6ADFCFE9FFDE
:1008A000DF2A010EDBCFEAFF01E3DB2AEF6AE55224
:1008B000E552E552E5CFDAFFE7CFD9FF1200D9CFF5
:1008C000E6FFDACFE6FFE1CFD9FFE2CFDAFF060E8F
:1008D000E12402E3E168E652E16ED950020FE96ECD
:1008E000DACFEAFF000EEA22B60EEE6E000EED6ED3
:1008F000D950040FE96EDACFEAFF000EEA22BE0EED
:10090000EE6E000EED6EDE6ADD6ADECF14F0DDCF36
:1009100015F0166A176AD8901750000A08E6090EF3
:10092000145C000E1558000E1658000E175830E2D1
:10093000020EDBCFE9FF030EDBCFEAFFEF6A020E08
:10094000DBCFE9FF030EDBCFEAFF040EE926000E42
:10095000EA22040EDBCFEEFF050EDBCFEDFFD95010
:10096000020FE96E000EDA20EA6E080EEE26000E87
:10097000EF22D950040FE96E000EDA20EA6E080E5D
:10098000EE26000EEF22DF2A010E01E3DB2ABDD79F
:10099000020EDBCFE9FF030EDBCFEAFFEF6A020EA8
:1009A000DBCFE9FF030EDBCFEAFF040EEB6A050E97
:1009B000EB6A0001B60EB46F000EB56F060EE15C77
:1009C00002E2E16AE552E16EE552E5CFDAFFE7CFF8
:1009D000D9FF12000101806B0101826B0101896B5B
:1009E0000101886B0001B06BB16BB26BB36B01019D
:1009F0008A6B8B6B8C6B8D6B1200D9CFE6FFDACFD5
:100A0000E6FFE1CFD9FFE2CFDAFFE652E652E65247
:100A1000E6520101856BD950020FE96EDACFEAFF89
:100A2000000EEA22860EEE6E010EED6EDE6ADD6AC3
:100A3000DECF14F0DDCF15F0020E145C000E155859
:100A40000FE2020EDBCFE9FFDB2A030EDBCFEAFF6A
:100A500001E3DB2AEF6ADF2A010E01E3DB2AE8D794
:100A60000101836B0101846B0101F66BF76B0101DE
:100A7000F26BF36B040EE15C02E2E16AE552E16EB7
:100A8000E552E5CFDAFFE7CFD9FF12000F0EE66E91
:100A90008E0EE66E010EE66E000EE66EE66AEC0E57
:100AA000E66E0C0EE66E000EE66E94EC19F0146E17
:100AB000080EE15C02E2E16AE552E16E14501200B8
:100AC0000E0EE66E1C0EE66E010EE66E000EE66E73
:100AD000E66A480EE66E0D0EE66E000EE66E94ECCB
:100AE00019F0146E080EE15C02E2E16AE552E16E73
:100AF00014501200D9CFE6FFDACFE6FFE1CFD9FFDD
:100B0000E2CFDAFFE652E652E652E652E652010141
:100B1000F86BF96BDF6A100EDF5C0DE2EA6ADF3416
:100B2000FE0BEA36E96EFA0EE926010EEA22EE6ABB
:100B3000ED6ADF2AF0D7D950010FE96EDACFEAFF6C
:100B4000000EEA221A0EEE6E020EED6ED950030F61
:100B5000E96EDACFEAFF000EEA222F0EEE6E020EE9
:100B6000ED6EDF6A050EDF5C26E2010EDBCFE9FFEA
:100B7000020EDBCFEAFF020EE926000EEA22030E88
:100B8000DBCFEEFF040EDBCFEDFFD950010FE96E96
:100B9000000EDA20EA6E150EEE26000EEF22D95076
:100BA000030FE96E000EDA20EA6E150EEE26000E37
:100BB000EF22DF2AD7D7010EDBCFE9FF020EDBCF12
:100BC000EAFF020EEB6A030EEB6A01011A0EF46FE4
:100BD000020EF56F050EE15C02E2E16AE552E16E9C
:100BE000E552E5CFDAFFE7CFD9FF1200D9CFE6FF14
:100BF000DACFE6FFE1CFD9FFE2CFDAFFE652E652E5
:100C0000C00EF214DF6E800ED0143F09F2160101FF
:100C1000805162E1010182515FE1660E146E6E0E39
:100C2000156E000E166E85C117F0186A196A1450F9
:100C30001724F36E15501820F46E16501920F86E14
:100C4000F4CFF7FFF3CFF6FF0800010EF5CFDBFF7F
:100C5000660E156E6E0E166E000E176E010EDB50D0
:100C6000EA6A860FE96E010EEA22EFCF18F0196AE0
:100C70001A6A15501824F36E16501920F46E175086
:100C80001A20F86EF4CFF7FFF3CFF6FF0800F5CF88
:100C900014F0010EDB50080DF35014240101846F91
:100CA000010183510101845D17E001018451E96E66
:100CB000EA6AD890E936EA36FA0EE926010EEA2207
:100CC000EECFF6F1EDCFF7F10001B02B000EB1231E
:100CD000B223B323EDEC31F0DF50F212E552E552CE
:100CE000E552E5CFDAFFE7CFD9FF1200D9CFE6FF13
:100CF000DACFE6FFE1CFD9FFE2CFDAFFE652FC0E12
:100D0000DBCF08F0FD0EDBCF09F0FC0E08C0DBFFE7
:100D1000FD0E09C0DBFFC00EF214DF6E800ED01492
:100D20003F09F21601018A2B000E8B238C238D23A1
:100D3000DF50F212A8EC31F0EED7E552E552E5CFE4
:100D4000DAFFE7CFD9FF1200D9CFE6FFDACFE6FF0F
:100D5000E1CFD9FFE2CFDAFF0A0EE12402E3E16836
:100D6000E652E16EFC0EDBCF08F0FD0EDBCF09F0A2
:100D7000FC0E08C0DBFFFD0E09C0DBFF01011B51AB
:100D800008E1C80EE66EE66ACDEC1CF0E552E552CD
:100D9000F5D713C106F014C107F015C108F016C14C
:100DA00009F0640E0B6E0C6A0D6A0E6AA2EC3BF041
:100DB000050E06C0DBFF060E07C0DBFF070E08C0EE
:100DC000DBFF080E09C0DBFFC00EF214DF6E800EE1
:100DD000D0143F09F2168AC117F18BC118F18CC1EA
:100DE00019F18DC11AF1010E8AC1DBFF020E8BC110
:100DF000DBFF030E8CC1DBFF040E8DC1DBFF0101A5
:100E00008A6B8B6B8C6B8D6BDF50F212D950050F98
:100E1000E96E000EDA20EA6ED880000EEE54000E65
:100E2000EE54000EEE54000EEE5442E2640E186EC4
:100E3000196A1A6A1B6A010EDBCF1CF0020EDBCFA7
:100E40001DF0030EDBCF1EF0040EDBCF1FF01CC025
:100E500006F01DC007F01EC008F01FC009F0050E07
:100E6000DBCF0BF0060EDBCF0CF0070EDBCF0DF067
:100E7000080EDBCF0EF0A2EC3BF00650185C146EAF
:100E800007501958156E08501A58166E09501B58FD
:100E9000176E090E14C0DBFF090EDBCF14F01434FB
:100EA00004E2090EDBCF12F102D00101126B1DD05A
:100EB0000101126B13C106F014C107F015C108F04F
:100EC00016C109F0640E0B6E0C6A0D6A0E6AA2EC74
:100ED0003BF0050E06C0DBFF060E07C0DBFF070E6A
:100EE00008C0DBFF080E09C0DBFF98EC31F0640E90
:100EF000E66EE66ACDEC1CF0E552E55265D70A0EC7
:100F0000E15C02E2E16AE552E16EE552E5CFDAFF2B
:100F1000E7CFD9FF1200D9CFE6FFDACFE6FFE1CF66
:100F2000D9FFE2CFDAFFE652E652E652C00EF214E3
:100F3000DF6E800ED0143F09F216010EF4C1DBFF04
:100F4000020EF5C1DBFFD950010FE96E000EDA2069
:100F5000EA6EEE50ED1001E1AFD1010EDBCFE9FFFB
:100F6000020EDBCFEAFF020EE926000EEA22EECFE8
:100F7000F4F1EDCFF5F1DF50F212010EDBCFE9FF16
:100F8000020EDBCFEAFFFB0EDBCFEEFFFC0EDBCF6A
:100F9000EDFF010EDBCFE9FF020EDBCFEAFF0F0E04
:100FA000E926000EEA22FD0EDBCFEFFF010EDBCFBC
:100FB000E9FF020EDBCFEAFF0E0EE926000EEA2261
:100FC000EF6A010EDBCFE9FF020EDBCFEAFF0C0E6A
:100FD000EB6A0D0EEB6AF10EDBCF08F0F20EDBCF01
:100FE00009F0F10E08C0DBFFF20E09C0DBFFD9509B
:100FF000F30FE96EFF0EDA20EA6EF30EEECFDBFFA1
:10100000F40EEECFDBFFF50EEECFDBFFF60EEECFEC
:10101000DBFFF90EDBCF08F0FA0EDBCF09F0F90E9B
:1010200008C0DBFFFA0E09C0DBFFEF0EDBCF08F0D4
:10103000F00EDBCF09F0EF0E08C0DBFFF00E09C0A9
:10104000DBFFF70EDBCF08F0F80EDBCF09F0F70E71
:1010500008C0DBFFF80E09C0DBFF010EDBCFE9FFA4
:10106000020EDBCFEAFF140EE926000EEA22EF6A39
:10107000FD0EDB40E840E8401F0BE66E010EDBCFC3
:10108000E9FF020EDBCFEAFF110EE926000EEA228D
:10109000E552E750EF6E5E0E146E6E0E156E000E8A
:1010A000166E010EDBCFE9FF020EDBCFEAFF110E59
:1010B000E926000EEA22EFCF17F0186A196A1450D9
:1010C0001724F36E15501820F46E16501920F86E80
:1010D000F4CFF7FFF3CFF6FF0800F550E66E010EF0
:1010E000DBCFE9FF020EDBCFEAFF130EE926000E8D
:1010F000EA22E552E750EF6EFD0EDB50070BE66E7D
:10110000010EDBCFE9FF020EDBCFEAFF100EE9266E
:10111000000EEA22E552E750EF6E5E0E146E6E0E80
:10112000156E000E166E010EDBCFE9FF020EDBCF4F
:10113000EAFF100EE926000EEA22EFCF17F0186A38
:10114000196A14501724F36E15501820F46E1650B7
:101150001920F86EF4CFF7FFF3CFF6FF0800F55033
:10116000E66E010EDBCFE9FF020EDBCFEAFF120EC7
:10117000E926000EEA22E552E750EF6E010EDBCFC2
:10118000E9FF020EDBCFEAFF060EEB6A070EEB6A01
:10119000010EDBCFE9FF020EDBCFEAFF080EEB6AA0
:1011A000090EEB6A010EDBCFE6FF020EDBCFE6FF96
:1011B0009AEC31F0E552E552010EDBCFE6FF020E6C
:1011C000DBCFE6FF7AEC31F0E552E552C00EF214C7
:1011D000DF6E800ED0143F09F216FD0EEA6ADB3492
:1011E000FE0BEA36E96EFA0EE926010EEA22010E3E
:1011F000DBCFEEFF020EDBCFEDFF010EDBCFE9FF11
:10120000020EDBCFEAFF020EE926000EEA22F8C149
:10121000EEFFF9C1EDFF010EDBCFE9FF020EDBCFE0
:10122000EAFF040EEB6A050EEB6A0101F851F911B1
:101230000EE0F8C1E9FFF9C1EAFF040EE926000E4D
:10124000EA22010EDBCFEEFF020EDBCFEDFF010E37
:10125000DBCFF8F1020EDBCFF9F1010EDBCFE9FFB6
:10126000020EDBCFEAFF130EE926000EEA22EF5052
:1012700001018513010EDBCFE9FF020EDBCFEAFF90
:10128000120EE926000EEA22EFCF14F0010EDBCF9A
:10129000E9FF020EDBCFEAFF110EE926000EEA227B
:1012A000EF50EA6A860FE96E010EEA221450EF123F
:1012B000DF50F212000E04D0DF50F212460E00D0C2
:1012C000E552E552E552E552E5CFDAFFE7CFD9FF27
:1012D0001200D9CFE6FFDACFE6FFE1CFD9FFE2CFA8
:1012E000DAFF060EE12402E3E168E652E16ED9502E
:1012F000FC0FE96EFF0EDA20EA6EEE50ED100BE106
:10130000F70EDBCFE9FFF80EDBCFEAFF960EEF6EAC
:10131000F36AF46AC4D1FC0EDBCFE9FFFD0EDBCF2C
:10132000EAFFEF5005080BE0F70EDBCFE9FFF80E00
:10133000DBCFEAFF010EEF6EF36AF46AB0D1F90E6B
:10134000DBAE08D0F90EDB9E010EF36E050EF3CF77
:10135000DBFF02D0050EDB6AF70EDBCFE9FFF80EEC
:10136000DBCFEAFFEF6AC00EF214DF6E800ED014FE
:101370003F09F216F90EDB50010A01E11CD1010A06
:1013800001E1BAD0030A60E0010A01E06ED1FA0E71
:10139000DBCF16F0FB0EDBCF17F0FC0EDBCFE9FF47
:1013A000FD0EDBCFEAFF030EE926000EEA221650FF
:1013B000EE14146E1750EE14156E030E14C0DBFFFE
:1013C000040E15C0DBFF030EDBCF14F0040EDBCFE1
:1013D00015F0FA0EDB50141803E1FB0EDB50151864
:1013E00018E1050EDB0414E1030EDB1C146E040E81
:1013F000DB1C156EFC0EDBCFE9FFFD0EDBCFEAFF39
:10140000030EE926000EEA221450EE161550ED16D2
:1014100008D0F70EDBCFE9FFF80EDBCFEAFF980E1E
:10142000EF6EFC0EDBCFE9FFFD0EDBCFEAFF030E14
:10143000E926000EEA22010EEECFDBFF020EEDCF11
:10144000DBFFDF50F21220D1FA0EDBCF16F0FB0EDD
:10145000DBCF17F0FC0EDBCFE9FFFD0EDBCFEAFFA1
:10146000030EE926000EEA221650EE14146E1750F1
:10147000EE14156E030E14C0DBFF040E15C0DBFF67
:10148000D950030FE96E000EDA20EA6EEE50ED102F
:1014900018E0050EDB0414E1030EDB1C146E040ED1
:1014A000DB1C156EFC0EDBCFE9FFFD0EDBCFEAFF88
:1014B000030EE926000EEA221450EE161550ED1622
:1014C00008D0F70EDBCFE9FFF80EDBCFEAFF980E6E
:1014D000EF6EFC0EDBCFE9FFFD0EDBCFEAFF030E64
:1014E000E926000EEA22010EEECFDBFF020EEDCF61
:1014F000DBFFDF50F212C8D0FC0EDBCFE9FFFD0EA0
:10150000DBCFEAFF030EE926000EEA22EECF16F04B
:10151000EFCF17F0161E171EFA0EDB501614146EBE
:10152000FB0EDB501714156E030E14C0DBFF040E08
:1015300015C0DBFF030EDBCF14F0040EDBCF15F07C
:10154000FA0EDB50141803E1FB0EDB50151818E1FE
:10155000050EDB0414E1030EDBCF14F0040EDBCF29
:1015600015F0FC0EDBCFE9FFFD0EDBCFEAFF030E2B
:10157000E926000EEA221450EE121550ED1208D0A2
:10158000F70EDBCFE9FFF80EDBCFEAFF980EEF6E28
:10159000FC0EDBCFE9FFFD0EDBCFEAFF030EE926F1
:1015A000000EEA22010EEECFDBFF020EEDCFDBFFD5
:1015B000DF50F21269D0FC0EDBCFE9FFFD0EDBCF6E
:1015C000EAFF030EE926000EEA22EECF16F0EFCF77
:1015D00017F0161E171EFA0EDB501614146EFB0EB3
:1015E000DB501714156E030E14C0DBFF040E15C07C
:1015F000DBFFD950030FE96E000EDA20EA6EEE50E1
:10160000ED1018E0050EDB0414E1030EDBCF14F03F
:10161000040EDBCF15F0FC0EDBCFE9FFFD0EDBCFB8
:10162000EAFF030EE926000EEA221450EE121550CE
:10163000ED1208D0F70EDBCFE9FFF80EDBCFEAFFA3
:10164000980EEF6EFC0EDBCFE9FFFD0EDBCFEAFF5D
:10165000030EE926000EEA22010EEECFDBFF020E9A
:10166000EDCFDBFFDF50F2120FD0DF50F212010E90
:10167000DB6A020EDB6AF70EDBCFE9FFF80EDBCF89
:10168000EAFF970EEF6E00D0010EDBCF14F0020ED2
:10169000DBCF15F014C0F3FF15C0F4FF00D0060E29
:1016A000E15C02E2E16AE552E16EE552E5CFDAFF84
:1016B000E7CFD9FF1200D9CFE6FFDACFE6FFE1CFBF
:1016C000D9FFE2CFDAFFE652E652E652010180513D
:1016D00000080BE2FA0EDBCFE9FFFB0EDBCFEAFFDF
:1016E0008D0EEF6EF36AF46A60D0C00EF214DF6EF6
:1016F000800ED0143F09F216010E10C1DBFF020E5E
:1017000011C1DBFFD950010FE96E000EDA20EA6E3D
:10171000EE50ED1035E010C1E9FF11C1EAFFEE52C5
:10172000EECF10F1EDCF11F1010EDBCFE9FF020E8C
:10173000DBCFEAFF050EEF6E010EDBCFE9FF020EF5
:10174000DBCFEAFF030EE926000EEA22FC0EDBCF18
:10175000EEFFFD0EDBCFEDFF010EDBCFE9FF020E4A
:10176000DBCFEAFF010EEB6A020EEB6ADF50F212EA
:10177000FA0EDBCFE9FFFB0EDBCFEAFFEF6A0AD000
:10178000DF50F212FA0EDBCFE9FFFB0EDBCFEAFFF0
:101790009A0EEF6E010EDBCF14F0020EDBCF15F0C8
:1017A00014C0F3FF15C0F4FF00D0E552E552E55236
:1017B000E552E5CFDAFFE7CFD9FF1200D9CFE6FF38
:1017C000DACFE6FFE1CFD9FFE2CFDAFFE652E65209
:1017D000E652E65201018051000813E2F90EDBCF18
:1017E000E9FFFA0EDBCFEAFF8C0EEF6EFC0EDBCFCB
:1017F00014F0FD0EDBCF15F014C0F3FF15C0F4FF9D
:1018000003D1D950FC0FE96EFF0EDA20EA6EEE50DC
:10181000ED1013E1F90EDBCFE9FFFA0EDBCFEAFFA3
:10182000960EEF6EFC0EDBCF14F0FD0EDBCF15F045
:1018300014C0F3FF15C0F4FFE7D0FC0EDBCFE9FFC7
:10184000FD0EDBCFEAFFEF50050813E0F90EDBCF0A
:10185000E9FFFA0EDBCFEAFF010EEF6EFC0EDBCFE5
:1018600014F0FD0EDBCF15F014C0F3FF15C0F4FF2C
:10187000CBD0C00EF214DF6E800ED0143F09F216EA
:10188000FC0EDBCFE9FFFD0EDBCFEAFFEE52EE50A0
:10189000ED1004E0DE52010EDD6E02D0010EDB6AB7
:1018A000FB0EDB50010A40E0010A01E098D0010E76
:1018B000DB5025E1FC0EDBCFE9FFFD0EDBCFEAFFBD
:1018C000EF6AFC0EDBCFE9FFFD0EDBCFEAFFEE5245
:1018D00010C1EEFF11C1EDFFFC0EDBCF10F1FD0ECC
:1018E000DBCF11F1DF50F212F90EDBCFE9FFFA0E78
:1018F000DBCFEAFFEF6AF36AF46A86D015D0DF50D7
:10190000F212F90EDBCFE9FFFA0EDBCFEAFF080E89
:10191000EF6EFC0EDBCF14F0FD0EDBCF15F014C024
:10192000F3FF15C0F4FF70D0FC0EDBCFE9FFFD0E16
:10193000DBCFEAFFEE52020EEECFDBFF030EEDCF60
:10194000DBFFD950020FE96E000EDA20EA6EEE508E
:10195000ED101CE0000EE66EE66A020EDBCFE6FF3D
:10196000030EDBCFE6FF5BEC14F0E552E552E552E7
:10197000E552020EDBCFE9FF030EDBCFEAFF020EDA
:10198000EECFDBFF030EEDCFDBFFDBD7FC0EDBCFB3
:10199000E9FFFD0EDBCFEAFFEF6AFC0EDBCFE9FFCC
:1019A000FD0EDBCFEAFFEE5210C1EEFF11C1EDFFDD
:1019B000FC0EDBCF10F1FD0EDBCF11F1DF50F21288
:1019C000010EDB0402E1F6EC05F0F90EDBCFE9FFD6
:1019D000FA0EDBCFEAFFEF6AF36AF46A15D0DF5044
:1019E000F212F90EDBCFE9FFFA0EDBCFEAFF070EAA
:1019F000EF6EFC0EDBCF14F0FD0EDBCF15F014C044
:101A0000F3FF15C0F4FF00D0040EE15C02E2E16ACE
:101A1000E552E16EE552E5CFDAFFE7CFD9FF1200DC
:101A2000D9CFE6FFDACFE6FFE1CFD9FFE2CFDAFF89
:101A3000110EE12402E3E168E652E16E01018051FA
:101A400000080BE2F50EDBCFE9FFF60EDBCFEAFF75
:101A5000020EEF6EF36AF46A2FD3D950FC0FE96ED1
:101A6000FF0EDA20EA6EEE50ED100BE1F50EDBCF43
:101A7000E9FFF60EDBCFEAFF960EEF6EF36AF46A2B
:101A80001BD3FC0EDBCFE9FFFD0EDBCFEAFFEF50EF
:101A900005080BE0F50EDBCFE9FFF60EDBCFEAFF22
:101AA000010EEF6EF36AF46A07D3F90EDBAE08D0CD
:101AB000F90EDB9E010EF36E100EF3CFDBFF02D0AA
:101AC000100EDB6AC00EF214DF6E800ED0143F09D8
:101AD000F216F90EDB50010A01E1AFD1010A01E172
:101AE0001DD1030A01E191D0010A01E030D2FA0EC2
:101AF000DBCF16F0FB0EDBCF17F0FC0EDBCFE9FFE0
:101B0000FD0EDBCFEAFF030EE926000EEA22165097
:101B1000EE14146E1750EE14156E0E0E14C0DBFF8B
:101B20000F0E15C0DBFF0E0EDBCF14F00F0EDBCF58
:101B300015F0FA0EDB50141803E1FB0EDB501518FC
:101B40003CE1100EDB0414E10E0EDB1C146E0F0ED4
:101B5000DB1C156EFC0EDBCFE9FFFD0EDBCFEAFFD1
:101B6000030EE926000EEA221450EE161550ED166B
:101B7000FC0EDBCFE9FFFD0EDBCFEAFF030EE9260B
:101B8000000EEA220C0EEECFDBFF0D0EEDCFDBFFD9
:101B9000DF50F212F50EDBCFE9FFF60EDBCFEAFFE6
:101BA000EF6A0C0EDBCF14F00D0EDBCF15F014C076
:101BB000F3FF15C0F4FF80D227D0F70EDBCFE6FF8E
:101BC000F80EDBCFE6FFF90EDBCFE6FFFA0EDBCF38
:101BD000E6FFFB0EDBCFE6FFD950010FE66E000EED
:101BE000DA20E66EFC0EDBCFE6FFFD0EDBCFE6FF74
:101BF00002EC13F0146E090EE15C02E2E16AE552B8
:101C0000E16E1450DF50F212BBD1FA0EDBCF16F0AA
:101C1000FB0EDBCF17F0FC0EDBCFE9FFFD0EDBCFB9
:101C2000EAFF030EE926000EEA221650EE14146EA7
:101C30001750EE14156E0E0E14C0DBFF0F0E15C0FC
:101C4000DBFFD9500E0FE96E000EDA20EA6EEE507F
:101C5000ED103CE0100EDB0414E10E0EDB1C146EE4
:101C60000F0EDB1C156EFC0EDBCFE9FFFD0EDBCF8C
:101C7000EAFF030EE926000EEA221450EE16155074
:101C8000ED16FC0EDBCFE9FFFD0EDBCFEAFF030E06
:101C9000E926000EEA220C0EEECFDBFF0D0EEDCF93
:101CA000DBFFDF50F212F50EDBCFE9FFF60EDBCFE4
:101CB000EAFFEF6A0C0EDBCF14F00D0EDBCF15F050
:101CC00014C0F3FF15C0F4FFF7D127D0F70EDBCF18
:101CD000E6FFF80EDBCFE6FFF90EDBCFE6FFFA0EEC
:101CE000DBCFE6FFFB0EDBCFE6FFD950010FE66E40
:101CF000000EDA20E66EFC0EDBCFE6FFFD0EDBCF3A
:101D0000E6FF02EC13F0146E090EE15C02E2E16AF8
:101D1000E552E16E1450DF50F21232D1FC0EDBCFEF
:101D2000E9FFFD0EDBCFEAFF030EE926000EEA22F3
:101D3000EECF16F0EFCF17F0161E171EFA0EDB507F
:101D40001614146EFB0EDB501714156E0E0E14C015
:101D5000DBFF0F0E15C0DBFF0E0EDBCF14F00F0EF6
:101D6000DBCF15F0FA0EDB50141803E1FB0EDB504D
:101D700015183CE1100EDB0414E10E0EDBCF14F05D
:101D80000F0EDBCF15F0FC0EDBCFE9FFFD0EDBCF36
:101D9000EAFF030EE926000EEA221450EE12155057
:101DA000ED12FC0EDBCFE9FFFD0EDBCFEAFF030EE9
:101DB000E926000EEA220C0EEECFDBFF0D0EEDCF72
:101DC000DBFFDF50F212F50EDBCFE9FFF60EDBCFC3
:101DD000EAFFEF6A0C0EDBCF14F00D0EDBCF15F02F
:101DE00014C0F3FF15C0F4FF67D126D0F70EDBCF88
:101DF000E6FFF80EDBCFE6FFF90EDBCFE6FFFA0ECB
:101E0000DBCFE6FFFB0EDBCFE6FFD950010FE66E1E
:101E1000000EDA20E66EFC0EDBCFE6FFFD0EDBCF18
:101E2000E6FFF0DB146E090EE15C02E2E16AE552C6
:101E3000E16E1450DF50F212A3D0FC0EDBCFE9FFAD
:101E4000FD0EDBCFEAFF030EE926000EEA22EECFFD
:101E500016F0EFCF17F0161E171EFA0EDB501614F1
:101E6000146EFB0EDB501714156E0E0E14C0DBFF44
:101E70000F0E15C0DBFFD9500E0FE96E000EDA20F1
:101E8000EA6EEE50ED103CE0100EDB0414E10E0E95
:101E9000DBCF14F00F0EDBCF15F0FC0EDBCFE9FF2C
:101EA000FD0EDBCFEAFF030EE926000EEA221450F6
:101EB000EE121550ED12FC0EDBCFE9FFFD0EDBCF6D
:101EC000EAFF030EE926000EEA220C0EEECFDBFF3E
:101ED0000D0EEDCFDBFFDF50F212F50EDBCFE9FF89
:101EE000F60EDBCFEAFFEF6A0C0EDBCF14F00D0E1F
:101EF000DBCF15F014C0F3FF15C0F4FFDDD026D002
:101F0000F70EDBCFE6FFF80EDBCFE6FFF90EDBCFF7
:101F1000E6FFFA0EDBCFE6FFFB0EDBCFE6FFD95084
:101F2000010FE66E000EDA20E66EFC0EDBCFE6FF58
:101F3000FD0EDBCFE6FF66DB146E090EE15C02E20C
:101F4000E16AE552E16E1450DF50F21219D0DF5011
:101F5000F2120C0EDB6A0D0EDB6AF50EDBCFE9FF29
:101F6000F60EDBCFEAFF970EEF6E0C0EDBCF14F010
:101F70000D0EDBCF15F014C0F3FF15C0F4FF9CD09D
:101F8000F6EC05F0C00EF214DF6E800ED0143F099F
:101F9000F216F2C1E9FFF3C1EAFF0E0EEB50200B7F
:101FA00022E0D950010FE66E000EDA20E66EDFEC7B
:101FB00014F0E552E552F2C1E9FFF3C1EAFF0E0E5B
:101FC000E926000EEA22EF6ADF50F2120C0EDB6AFD
:101FD0000D0EDB6AF50EDBCFE9FFF60EDBCFEAFF75
:101FE0000A0EEF6E5ED0100EDB0442E1F90EDB50FC
:101FF00024E0010A22E0030A03E0010A01E038D0EC
:10200000F2C1E9FFF3C1EAFF0A0EE926000EEA2257
:10201000EECF14F0EFCF15F0141E151EFC0EDBCF23
:10202000E9FFFD0EDBCFEAFF030EE926000EEA22F0
:102030001450EE161550ED161BD0F2C1E9FFF3C196
:10204000EAFF0A0EE926000EEA22EECF14F0EFCFE7
:1020500015F0FC0EDBCFE9FFFD0EDBCFEAFF030E30
:10206000E926000EEA221450EE121550ED1200D0AF
:10207000FC0EDBCFE9FFFD0EDBCFEAFF030EE92606
:10208000000EEA220C0EEECFDBFF0D0EEDCFDBFFD4
:10209000DF50F212F50EDBCFE9FFF60EDBCFEAFFE1
:1020A000EF6A0C0EDBCF14F00D0EDBCF15F014C071
:1020B000F3FF15C0F4FF00D0110EE15C02E2E16A0B
:1020C000E552E16EE552E5CFDAFFE7CFD9FF120026
:1020D000D9CFE6FFDACFE6FFE1CFD9FFE2CFDAFFD3
:1020E000080EE12402E3E168E652E16ED950FC0FEC
:1020F000E96EFF0EDA20EA6EEE50ED100BE1F70EFE
:10210000DBCFE9FFF80EDBCFEAFF960EEF6EF36A46
:10211000F46A05D2FC0EDBCFE9FFFD0EDBCFEAFF50
:10212000EF5005080BE0F70EDBCFE9FFF80EDBCF31
:10213000EAFF010EEF6EF36AF46AF1D1C00EF214F9
:10214000DF6E800ED0143F09F216F90EDB50010A43
:1021500018E0010A01E02AD0FA0EDB1C146EFB0E17
:10216000DB1C156EFC0EDBCFE9FFFD0EDBCFEAFFBB
:10217000030EE926000EEA221450EE161550ED1655
:1021800022D0FA0EDBCF14F0FB0EDBCF15F0FC0EE5
:10219000DBCFE9FFFD0EDBCFEAFF030EE926000EE1
:1021A000EA221450EE121550ED120DD0DF50F2124B
:1021B000F70EDBCFE9FFF80EDBCFEAFF990EEF6EEB
:1021C000F36AF46AACD1030EDB6AFC0EDBCFE9FFE5
:1021D000FD0EDBCFEAFFEE52010EEECFDBFF020E6B
:1021E000EDCFDBFFD950010FE96E000EDA20EA6E69
:1021F000EE50ED1001E161D1010EDBCFE9FF020EDF
:10220000DBCFEAFF0A0EE926000EEA22EF50010AB0
:1022100001E1FED0010A01E1A2D0030A5AE0010A5D
:1022200001E03ED1FC0EDBCFE9FFFD0EDBCFEAFF84
:10223000030EE926000EEA22EECF16F0EFCF17F0DC
:10224000010EDBCFE9FF020EDBCFEAFF080EE92625
:10225000000EEA221650EE14146E1750EE14156E8E
:10226000060E14C0DBFF070E15C0DBFF060EDBCF2A
:1022700014F0070EDBCF15F0010EDBCFE9FF020EE5
:10228000DBCFEAFF080EE926000EEA22EECF16F0B9
:10229000EFCF17F01650141802E11750151818E177
:1022A000060EDBCFE6FF070EDBCFE6FF010EDBCF2E
:1022B000E6FF020EDBCFE6FFFEDAE552E552E5521D
:1022C000E552010805E1010EF36E030EF3CFDBFFCB
:1022D000E7D0FC0EDBCFE9FFFD0EDBCFEAFF030EFC
:1022E000E926000EEA22EECF16F0EFCF17F0010E2E
:1022F000DBCFE9FF020EDBCFEAFF080EE926000E76
:10230000EA221650EE14146E1750EE14156E060ED7
:1023100014C0DBFF070E15C0DBFFD950060FE96EB6
:10232000000EDA20EA6EEE50ED1018E0060EDBCF5C
:10233000E6FF070EDBCFE6FF010EDBCFE6FF020E66
:10234000DBCFE6FFB8DAE552E552E552E552010887
:1023500005E1010EF36E030EF3CFDBFFA1D0FC0EFF
:10236000DBCFE9FFFD0EDBCFEAFF030EE926000E0F
:10237000EA22EECF16F0EFCF17F0161E171E010E51
:10238000DBCFE9FF020EDBCFEAFF080EE926000EE5
:10239000EA221650EE14146E1750EE14156E060E47
:1023A00014C0DBFF070E15C0DBFF060EDBCF14F0F9
:1023B000070EDBCF15F0010EDBCFE9FF020EDBCFFE
:1023C000EAFF080EE926000EEA22EECF16F0EFCF64
:1023D00017F01650141802E11750151818E1060EE0
:1023E000DBCFE6FF070EDBCFE6FF010EDBCFE6FF1C
:1023F000020EDBCFE6FF5FDAE552E552E552E55229
:10240000010805E1010EF36E030EF3CFDBFF48D0A8
:10241000FC0EDBCFE9FFFD0EDBCFEAFF030EE92662
:10242000000EEA22EECF16F0EFCF17F0161E171EA1
:10243000010EDBCFE9FF020EDBCFEAFF080EE92633
:10244000000EEA221650EE14146E1750EE14156E9C
:10245000060E14C0DBFF070E15C0DBFFD950060FB8
:10246000E96E000EDA20EA6EEE50ED1018E0060E6E
:10247000DBCFE6FF070EDBCFE6FF010EDBCFE6FF8B
:10248000020EDBCFE6FF17DAE552E552E552E552E0
:10249000010805E1010EF36E030EF3CFDBFF00D060
:1024A000010EDBCFE9FF020EDBCFEAFF010EEECF1C
:1024B000DBFF020EEDCFDBFF95D6DF50F212030EED
:1024C000DB0402E1F6EC05F0C00EF214DF6E800EC4
:1024D000D0143F09F216FC0EDBCFE9FFFD0EDBCF77
:1024E000EAFF030EE926000EEA22040EEECFDBFF20
:1024F000050EEDCFDBFFDF50F212F70EDBCFE9FF69
:10250000F80EDBCFEAFFEF6A040EDBCF14F0050E06
:10251000DBCF15F014C0F3FF15C0F4FF00D0080E98
:10252000E15C02E2E16AE552E16EE552E5CFDAFFF5
:10253000E7CFD9FF1200D9CFE6FFDACFE6FFE1CF30
:10254000D9FFE2CFDAFFE652E652E652D950FC0F4D
:10255000E96EFF0EDA20EA6EEE50ED100BE1FA0E96
:10256000DBCFE9FFFB0EDBCFEAFF960EEF6EF36ADF
:10257000F46A3FD0FC0EDBCFE9FFFD0EDBCFEAFFB4
:10258000EF5005080BE0FA0EDBCFE9FFFB0EDBCFC7
:10259000EAFF010EEF6EF36AF46A2BD0C00EF2145C
:1025A000DF6E800ED0143F09F216FC0EDBCFE9FF80
:1025B000FD0EDBCFEAFF030EE926000EEA22010E34
:1025C000EECFDBFF020EEDCFDBFFDF50F212FA0E93
:1025D000DBCFE9FFFB0EDBCFEAFFEF6A010EDBCFBB
:1025E00014F0020EDBCF15F014C0F3FF15C0F4FF9A
:1025F00000D0E552E552E552E552E5CFDAFFE7CFEC
:10260000D9FF1200D9CFE6FFDACFE6FFE1CFD9FF3D
:10261000E2CFDAFFE652E652F2C1E9FFF3C1EAFF88
:102620000E0EE926000EEA22EF8AF2C1E9FFF3C19D
:10263000EAFF0C0EE926000EEA22F50EDBCFEEFFD4
:10264000F60EDBCFEDFFF2C1E9FFF3C1EAFF080EA2
:10265000E926000EEA22FA0EDBCFEEFFFB0EDBCFFF
:10266000EDFFFA0EDBCFE9FFFB0EDBCFEAFF080E32
:10267000E926000EEA22F80EDBCFEEFFF90EDBCFE3
:10268000EDFFFA0EDBCFE9FFFB0EDBCFEAFF0A0E10
:10269000E926000EEA22F70EDBCFEFFFFA0EDBCFC2
:1026A000E9FFFB0EDBCFEAFF040EE926000EEA226B
:1026B000F2C1EEFFF3C1EDFFFC0EDBCFE9FFFD0E33
:1026C000DBCFEAFFEE52EECF14F0EFCF15F0FA0EAB
:1026D000DBCFE9FFFB0EDBCFEAFF14C0EEFF15C036
:1026E000EDFFFA0EDBCFE9FFFB0EDBCFEAFF020EB8
:1026F000EB6A030EEB6AFA0EDBCFE9FFFB0EDBCFD2
:10270000EAFF060EE926000EEA22FC0EDBCFEEFF02
:10271000FD0EDBCFEDFFFC0EDBCFE9FFFD0EDBCFC7
:10272000EAFFEE52EECFDEFFEDCFDDFFD9CFE9FFBE
:10273000DACFEAFFEE50ED100EE0DECFE9FFDDCF9D
:10274000EAFF020EE926000EEA22FA0EDBCFEEFFC8
:10275000FB0EDBCFEDFFFC0EDBCFE9FFFD0EDBCF89
:10276000EAFFEE52FA0EDBCFEEFFFB0EDBCFEDFF02
:10277000F2C1E9FFF3C1EAFF120EEB50E81C146E40
:10278000F2C1E9FFF3C1EAFF110EEB50EA6A860FCE
:10279000E96E010EEA221450EF16EF5009E1F2C182
:1027A000E9FFF3C1EAFF130EEB50E81C01018517A6
:1027B000E552E552E552E5CFDAFFE7CFD9FF120047
:1027C000D9CFE6FFDACFE6FFE1CFD9FFE2CFDAFFDC
:1027D000E652E652E652E652E652D950010FE96E51
:1027E000DACFEAFF000EEA22060EEE6E010EED6E63
:1027F000D950030FE96EDACFEAFF000EEA220B0E82
:10280000EE6E010EED6EDF6ADFCF14F0156A166A08
:10281000176AD8901750000A08E6010E145C000EE3
:102820001558000E1658000E17582AE2010EDBCF7D
:10283000E9FF020EDBCFEAFFEF6A010EDBCFE9FF13
:10284000020EDBCFEAFFEE52030EDBCFEEFF040EEB
:10285000DBCFEDFFD950010FE96E000EDA20EA6EF2
:10286000050EEE26000EEF22D950030FE96E000E82
:10287000DA20EA6E050EEE26000EEF22DF2AC4D71C
:10288000010EDBCFE9FF020EDBCFEAFF010EEB6AA0
:10289000020EEB6A0101060E106F010E116F050E9C
:1028A000E15C02E2E16AE552E16EE552E5CFDAFF72
:1028B000E7CFD9FF1200D9CFE6FFDACFE6FFE1CFAD
:1028C000D9FFE2CFDAFFE652E652E652FC0EDBCF4A
:1028D000E9FFFD0EDBCFEAFF040EE926000EEA2237
:1028E000EECFDEFFEDCFDDFFDECFE9FFDDCFEAFF8C
:1028F0000C0EEB6A0D0EEB6ADECFE9FFDDCFEAFFCF
:102900000A0EE926000EEA22FA0EDBCFEEFFFB0EDE
:10291000DBCFEDFFDECFE9FFDDCFEAFF0E0EE926CC
:10292000000EEA22EF9ADECFE9FFDDCFEAFF0E0EBE
:10293000E926000EEA22EF502BE1DECFE9FFDDCFE2
:10294000EAFF130EE926000EEA22EF50010185137B
:10295000DECFE9FFDDCFEAFF120EE926000EEA2204
:10296000EFCF14F0DECFE9FFDDCFEAFF110EE9264D
:10297000000EEA22EF50EA6A860FE96E010EEA22A3
:102980001450EF12010EF36E020EF3CFDBFF02D0F4
:10299000020EDB6AFC0EDBCFE6FFFD0EDBCFE6FFAF
:1029A0000ED8E552E552020EDB5000D0E552E5525A
:1029B000E552E552E5CFDAFFE7CFD9FF1200D9CFD4
:1029C000E6FFDACFE6FFE1CFD9FFE2CFDAFF080E6C
:1029D000E12402E3E168E652E16EFC0EDBCFE9FFA1
:1029E000FD0EDBCFEAFF020EE926000EEA22040EFE
:1029F000EECFDBFF050EEDCFDBFFFC0EDBCFE9FFFB
:102A0000FD0EDBCFEAFF060EEECFDBFF070EEDCFAC
:102A1000DBFFD950040FE96E000EDA20EA6EEE50AB
:102A2000ED1031E1FC0EDBCFE9FFFD0EDBCFEAFF5D
:102A3000060EE926000EEA22020EEECFDBFF030EA1
:102A4000EDCFDBFF020EDBCFE9FF030EDBCFEAFFAA
:102A5000EE52060EDBCFEEFF070EDBCFEDFFD950B7
:102A6000060FE96E000EDA20EA6EEE50ED100AE075
:102A7000060EDBCFE9FF070EDBCFEAFF020EEB6AA3
:102A8000030EEB6A25D0040EDBCFE9FF050EDBCF8A
:102A9000EAFF060EDBCFEEFF070EDBCFEDFFD950CE
:102AA000060FE96E000EDA20EA6EEE50ED1010E02F
:102AB000060EDBCFE9FF070EDBCFEAFF020EE926A9
:102AC000000EEA22040EDBCFEEFF050EDBCFEDFF9A
:102AD000FC0EDBCFE9FFFD0EDBCFEAFF040EE9269B
:102AE000000EEA22EECFDEFFEDCFDDFFDECFE9FF05
:102AF000DDCFEAFF080EEB6A090EEB6A080EE15C17
:102B000002E2E16AE552E16EE552E5CFDAFFE7CF96
:102B1000D9FF1200D9CFE6FFDACFE6FFE1CFD9FF28
:102B2000E2CFDAFFE652E652E652D950FC0FE96EE8
:102B3000FF0EDA20EA6EEE50ED1003E1F36AF46A5C
:102B400049D0FC0EDBCFE9FFFD0EDBCFEAFFEF50F3
:102B5000030803E0F36AF46A3DD0C00EF214DF6E9E
:102B6000800ED0143F09F216FC0EDBCFE9FFFD0EFC
:102B7000DBCFEAFF020EE926000EEA22010EEECFBD
:102B8000DBFF020EEDCFDBFFD950010FE96E000E27
:102B9000DA20EA6E000ED880EE54000EED540DE2FD
:102BA000FC0EDBCFE9FFFD0EDBCFEAFF020EE926CC
:102BB000000EEA22EE06000EEF5ADF50F212010E6E
:102BC000DBCF14F0020EDBCF15F014C0F3FF15C0FD
:102BD000F4FF00D0E552E552E552E552E5CFDAFFC9
:102BE000E7CFD9FF1200D9CFE6FFDACFE6FFE1CF7A
:102BF000D9FFE2CFDAFFE652E652E65201018051F8
:102C0000000803E2F36AF46A5FD0C00EF214DF6ECC
:102C1000800ED0143F09F216010EB4C0DBFF020E85
:102C2000B5C0DBFF0001B451B5110CE0B4C0E9FF41
:102C3000B5C0EAFF040EE926000EEA22EECFB4F09A
:102C4000EDCFB5F0DF50F212D950010FE96E000E52
:102C5000DA20EA6EEE50ED102CE0010EDBCFE9FF3A
:102C6000020EDBCFEAFF030EEF6E010EDBCFE9FFB2
:102C7000020EDBCFEAFF020EE926000EEA22FC0E6E
:102C8000DBCFEEFFFD0EDBCFEDFF010EDBCFE9FF6B
:102C9000020EDBCFEAFF040EEB6A050EEB6A010EB3
:102CA000DBCFE6FF020EDBCFE6FF21EC04F0E552BE
:102CB000E552010EDBCF14F0020EDBCF15F014C08D
:102CC000F3FF15C0F4FF00D0E552E552E552E5529E
:102CD000E5CFDAFFE7CFD9FF1200D9CFE6FFDACF91
:102CE000E6FFE1CFD9FFE2CFDAFFE652E65201017B
:102CF0008051000813E2F90EDBCFE9FFFA0EDBCFBB
:102D0000EAFF8C0EEF6EFC0EDBCF14F0FD0EDBCF76
:102D100015F014C0F3FF15C0F4FFF5D0D950FC0F27
:102D2000E96EFF0EDA20EA6EEE50ED1013E1F90EB7
:102D3000DBCFE9FFFA0EDBCFEAFF040EEF6EFC0EED
:102D4000DBCF14F0FD0EDBCF15F014C0F3FF15C080
:102D5000F4FFD9D0FC0EDBCFE9FFFD0EDBCFEAFF9D
:102D6000EF50030813E0F90EDBCFE9FFFA0EDBCFDB
:102D7000EAFF010EEF6EFC0EDBCF14F0FD0EDBCF91
:102D800015F014C0F3FF15C0F4FFBDD0C00EF2144F
:102D9000DF6E800ED0143F09F216FC0EDBCFE9FF88
:102DA000FD0EDBCFEAFFEE52EF5004E0DE52010EE3
:102DB000DD6E02D0010EDB6AFB0EDB50010A43E040
:102DC000010A01E08BD0010EDB5028E1FC0EDBCFC5
:102DD000E9FFFD0EDBCFEAFFEF6AFC0EDBCFE9FF78
:102DE000FD0EDBCFEAFF040EE926000EEA22B4C096
:102DF000EEFFB5C0EDFFFC0EDBCFB4F0FD0EDBCF78
:102E0000B5F0DF50F212F90EDBCFE9FFFA0EDBCF9F
:102E1000EAFFEF6AF36AF46A76D015D0DF50F21257
:102E2000F90EDBCFE9FFFA0EDBCFEAFF080EEF6EFB
:102E3000FC0EDBCF14F0FD0EDBCF15F014C0F3FF5A
:102E400015C0F4FF60D0FC0EDBCFE9FFFD0EDBCF39
:102E5000EAFFEE52EF5016E0010EE66E000EE66E4F
:102E6000E66AFC0EDBCFE6FFFD0EDBCFE6FF2DECC6
:102E700002F0146E050EE15C02E2E16AE552E16ED9
:102E80001450E1D7FC0EDBCFE9FFFD0EDBCFEAFFEC
:102E9000EF6AFC0EDBCFE9FFFD0EDBCFEAFF040E8D
:102EA000E926000EEA22B4C0EEFFB5C0EDFFFC0E2D
:102EB000DBCFB4F0FD0EDBCFB5F0DF50F212010E28
:102EC000DB0402E1F6EC05F0F90EDBCFE9FFFA0EC8
:102ED000DBCFEAFFEF6AF36AF46A15D0DF50F21233
:102EE000F90EDBCFE9FFFA0EDBCFEAFF070EEF6E3C
:102EF000FC0EDBCF14F0FD0EDBCF15F014C0F3FF9A
:102F000015C0F4FF00D0E552E552E552E5CFDAFFF7
:102F1000E7CFD9FF1200D9CFE6FFDACFE6FFE1CF46
:102F2000D9FFE2CFDAFFE65201018051000809E241
:102F3000F80EDBCFE9FFF90EDBCFEAFF020EEF6EF2
:102F4000ACD0D950FC0FE96EFF0EDA20EA6EEE50DD
:102F5000ED1009E1F80EDBCFE9FFF90EDBCFEAFF58
:102F6000040EEF6E9AD0FC0EDBCFE9FFFD0EDBCF37
:102F7000EAFFEF50030809E0F80EDBCFE9FFF90E96
:102F8000DBCFEAFF010EEF6E88D0C00EF214DF6EC9
:102F9000800ED0143F09F216FC0EDBCFE9FFFD0EC8
:102FA000DBCFEAFF020EE926000EEA22000ED880EF
:102FB000EE54000EED5417E2FC0EDBCFE9FFFD0EE0
:102FC000DBCFEAFF020EE926000EEA22EE06000E33
:102FD000EF5ADF50F212F80EDBCFE9FFF90EDBCF2C
:102FE000EAFFEF6A5AD0F2C1E9FFF3C1EAFF0E0E21
:102FF000E926000EEA22EF80F2C1E9FFF3C1EAFF01
:103000000C0EE926000EEA22FA0EDBCFEEFFFB0ED5
:10301000DBCFEDFFFC0EDBCFE6FFFD0EDBCFE6FFE7
:103020005CEC03F0E552E552DF50F212F6EC05F0ED
:10303000C00EF214DF6E800ED0143F09F216F2C1FA
:10304000E9FFF3C1EAFF0E0EEB50010B15E0FC0E99
:10305000DBCFE6FFFD0EDBCFE6FFCBEC03F0E55266
:10306000E552DF50F212F80EDBCFE9FFF90EDBCFAD
:10307000EAFF0A0EEF6E11D0F2C1E9FFF3C1EAFFD9
:10308000060EEB6A070EEB6ADF50F212F80EDBCF8A
:10309000E9FFF90EDBCFEAFFEF6AE552E552E5CF33
:1030A000DAFFE7CFD9FF1200D9CFE6FFDACFE6FF8C
:1030B000E1CFD9FFE2CFDAFFE652D950FC0FE96E3B
:1030C000FF0EDA20EA6EEE50ED1002E1040E65D03C
:1030D000FC0EDBCFE9FFFD0EDBCFEAFFEF5003086C
:1030E00002E0010E5AD0C00EF214DF6E800ED01432
:1030F0003F09F216FC0EDBCFE9FFFD0EDBCFEAFF46
:10310000EE52EF501BE0010EE66E000EE66EE66A30
:10311000FC0EDBCFE6FFFD0EDBCFE6FF2DEC02F071
:10312000146E050EE15C02E2E16AE552E16E1450B4
:10313000DF50F212F6EC05F0000E2FD0FC0EDBCFC4
:10314000E9FFFD0EDBCFEAFF020EE926000EEA22C0
:10315000EECF14F0EFCF15F0166AD8901650000A93
:1031600006E6FF0E145CFF0E1558000E165811E20D
:10317000FC0EDBCFE9FFFD0EDBCFEAFF020EE926F6
:10318000000EEA22EE2A000EEF22DF50F212000EAD
:1031900004D0DF50F212320E00D0E552E552E5CFF6
:1031A000DAFFE7CFD9FF1200D9CFE6FFDACFE6FF8B
:1031B000E1CFD9FFE2CFDAFFE652E652E652E6521D
:1031C000E652D950FC0FE96EFF0EDA20EA6EEE509F
:1031D000ED1002E1040E9AD0FC0EDBCFE9FFFD0EEC
:1031E000DBCFEAFFEF50030802E0010E8FD0C00EE4
:1031F000F214DF6E800ED0143F09F216FC0EDBCF06
:10320000E9FFFD0EDBCFEAFFEE52EF50E66EFA0E5D
:10321000DBCFE9FFFB0EDBCFEAFF040EE926000E51
:10322000EA22E552E750EF6EFC0EDBCFE9FFFD0E20
:10323000DBCFEAFF060EE926000EEA22E9CF14F002
:10324000EACF15F0010E14C0DBFF020E15C0DBFF44
:10325000FA0EDBCFE9FFFB0EDBCFEAFF020EE92619
:10326000000EEA22E9CF14F0EACF15F0030E14C0E5
:10327000DBFF040E15C0DBFF010EDBCFE9FFDB2A0D
:10328000020EDBCFEAFF01E3DB2AEF50E66E030E0E
:10329000DBCFE9FFDB2A040EDBCFEAFF01E3DB2A09
:1032A000E552E750EF6E010EDBCFE9FFDB2A020E9D
:1032B000DBCFEAFF01E3DB2AEF50E66E030EDBCF44
:1032C000E9FFDB2A040EDBCFEAFF01E3DB2AE5524C
:1032D000E750EF6EFC0EDBCFE9FFFD0EDBCFEAFF20
:1032E000020EE926000EEA22EECF14F0EFCF15F021
:1032F000FA0EDBCFE9FFFB0EDBCFEAFF14C0EEFFD7
:1033000015C0EDFFDF50F212000E00D0146E050E56
:10331000E15C02E2E16AE552E16E1450E552E5CF6C
:10332000DAFFE7CFD9FF1200D9CFE6FFDACFE6FF09
:10333000E1CFD9FFE2CFDAFFE652E652E652E6529B
:10334000F60EDB500F0802E22A0EA3D0C00EF214D4
:10335000DF6E800ED0143F09F216F60EEA6ADB34F7
:10336000FE0BEA36E96EFA0EE926010EEA22EE506D
:10337000ED1001E08AD0F60EEA6ADB34FE0BEA3685
:10338000E96EFA0EE926010EEA22010EEE6EED6AF2
:10339000DF50F212000EE66EE66AF70EDBCFE6FFB4
:1033A000F80EDBCFE6FFF90EDBCFE6FFFA0EDBCF40
:1033B000E6FFFB0EDBCFE6FFFC0EDBCFE6FFFD0EEC
:1033C000DBCFE6FF70EC30F0146E090EE15C02E238
:1033D000E16AE552E16E1450DE52F3CFDEFFF4CF26
:1033E000DDFFDD52000EE66EE66A000EE66EE66A6E
:1033F000E66AE66AE66AE66A000EE66EE66A000ECD
:10340000E66EE66A010EDBCFE6FF020EDBCFE6FFDB
:10341000F60EDBCFE6FF8BEC07F0146E0F0EE15CCF
:1034200002E2E16AE552E16E1450E76E030EE7CF67
:10343000DBFF030EDB5011E1C00EF214DF6E800ED5
:10344000D0143F09F2160101892BDF50F21201015D
:10345000880502E1F6EC05F015D0C00EF214DF6E1F
:10346000800ED0143F09F216F60EEA6ADB34FE0B2A
:10347000EA36E96EFA0EE926010EEA22EE6AED6AF4
:10348000DF50F212030EDB5004D0DF50F212280E90
:1034900000D0146E040EE15C02E2E16AE552E16ED6
:1034A0001450E552E5CFDAFFE7CFD9FF1200D9CFAC
:1034B000E6FFDACFE6FFE1CFD9FFE2CFDAFF080E71
:1034C000E12402E3E168E652E16E01018051000867
:1034D00002E23F0ED2D1FD0EDB500F0802E13D0E9D
:1034E000CCD10F0EF36EFD0EDBCFF4FFF350F45C86
:1034F00006E3FD0EDB50FF0802E02A0EBED1C00E2F
:10350000F214DF6E800ED0143F09F216FD0EDB5070
:10351000FF080AE1F2C1E9FFF3C1EAFF0F0EEB5029
:10352000E76EFD0EE7CFDBFFFD0EEA6ADB34FE0B34
:10353000EA36E96EFA0EE926010EEA22050EEECF12
:10354000DBFF060EEDCFDBFFD950050FE96E000E55
:10355000DA20EA6EEE50ED1001E18BD1050EDBCFE3
:10356000E9FF060EDBCFEAFF120EE926000EEA2283
:10357000EF1C146E050EDBCFE9FF060EDBCFEAFF72
:10358000110EE926000EEA22EF50EA6A860FE96E74
:10359000010EEA221450EF16EF500DE1050EDBCFBD
:1035A000E9FF060EDBCFEAFF130EE926000EEA2242
:1035B000EF1C01018517050EDBCFE9FF060EDBCFFF
:1035C000EAFF060EE926000EEA22010EEECFDBFF2F
:1035D000020EEDCFDBFFD950010FE96E000EDA20AD
:1035E000EA6EEE50ED1044E0050EDBCFE9FF060E6B
:1035F000DBCFEAFF120EE926000EEA22EF1C166E60
:10360000010EDBCFE9FF020EDBCFEAFF060EE92653
:10361000000EEA22E9CF14F0EACF15F0050EDBCF59
:10362000E9FF060EDBCFEAFF110EE926000EEA22C3
:10363000EF500F011424E96E000E1520EA6E1650AB
:10364000EF16EF5015E1050EDBCFE9FF060EDBCFDD
:10365000EAFF130EE926000EEA22EF1C146E010E9B
:10366000DBCFE9FF020EDBCFEAFFEE521450EF167C
:10367000050EDBCFE9FF060EDBCFEAFF080EE926D9
:10368000000EEA22030EEECFDBFF040EEDCFDBFFD0
:10369000D950030FE96E000EDA20EA6EEE50ED10FD
:1036A0000AE0030EDBCFE6FF040EDBCFE6FFDFEC24
:1036B00014F0E552E552050EDBCFE9FF060EDBCF35
:1036C000EAFF0C0EEB6A0D0EEB6A050EDBCFE9FF8D
:1036D000060EDBCFEAFF0E0EE926000EEA22EF6AA5
:1036E00001018251146E156AD890155004E6FF0E40
:1036F000145C000E155802E20101822BDF50F21219
:103700002CEC02F0C00EF214DF6E800ED0143F09D4
:10371000F21601018251000802E201018207050E42
:10372000DBCFE6FF060EDBCFE6FF88EC31F0E5529B
:10373000E55201018907FD0EEA6ADB34FE0BEA3629
:10374000E96EFA0EE926010EEA22EE6AED6A050E2E
:10375000DBCFE9FF060EDBCFEAFF040EE926000E01
:10376000EA22EE50ED1023E1050EDBCFE9FF060E55
:10377000DBCFEAFF020EE926000EEA22EE50EFCF81
:10378000EAFFE96E040EE926000EEA22EE6AED6A0F
:10379000050EDBCFE9FF060EDBCFEAFF020EE926BE
:1037A000000EEA22EECFF8F1EDCFF9F148D0050E88
:1037B000DBCFE9FF060EDBCFEAFF020EE926000EA3
:1037C000EA22EECF14F0EFCF15F0050EDBCFE9FFC4
:1037D000060EDBCFEAFF040EE926000EEA22EE50C9
:1037E000EFCFEAFFE96E020EE926000EEA2214C0CE
:1037F000EEFF15C0EDFF050EDBCFE9FF060EDBCFB8
:10380000EAFF040EE926000EEA22EECF14F0EFCF15
:1038100015F0050EDBCFE9FF060EDBCFEAFF020E47
:10382000E926000EEA22EE50EFCFEAFFE96E040E21
:10383000E926000EEA2214C0EEFF15C0EDFF050ECA
:10384000DBCFE9FF060EDBCFEAFF020EE926000E12
:10385000EA22F4C1EEFFF5C1EDFF050EDBCFF4F176
:10386000060EDBCFF5F1DF50F212F6EC05F0000E9C
:1038700004D0DF50F2123C0E00D0146E080EE15C52
:1038800002E2E16AE552E16E1450E552E5CFDAFF5B
:10389000E7CFD9FF1200D9CFE6FFDACFE6FFE1CFBD
:1038A000D9FFE2CFDAFFE652E652E652E652E6529E
:1038B000FD0EDB500F0802E13D0E61D00F0EF36EDE
:1038C000FD0EDBCFF4FFF350F45C06E3FD0EDB509E
:1038D000FF0802E02A0E53D0FD0EDB50FF0816E170
:1038E000C00EF214DF6E800ED0143F09F216F2C142
:1038F000E9FFF3C1EAFF140EEB50E76E010EE7CFCC
:10390000DBFFDF50F212010EDB5039D0C00EF21493
:10391000DF6E800ED0143F09F216FD0EEA6ADB342A
:10392000FE0BEA36E96EFA0EE926010EEA22030ED4
:10393000EECFDBFF040EEDCFDBFFD950030FE96EB6
:10394000000EDA20EA6EEE50ED100FE0030EDBCF32
:10395000E9FF040EDBCFEAFF140EE926000EEA228F
:103960003E0EEF6E020EDB6A05D00B0EF36E020EFA
:10397000F3CFDBFFDF50F212020EDB5000D0146EEB
:10398000050EE15C02E2E16AE552E16E1450E55297
:10399000E5CFDAFFE7CFD9FF1200D9CFE6FFDACFC4
:1039A000E6FFE1CFD9FFE2CFDAFFE652D950FC0FB4
:1039B000E96EFF0EDA20EA6E000ED880EE54000E9B
:1039C000ED5439E2C00EF214DF6E800ED0143F09C0
:1039D000F216F2C1E9FFF3C1EAFF120EEB50E81C48
:1039E000146EF2C1E9FFF3C1EAFF110EEB50EA6A6F
:1039F000860FE96E010EEA221450EF16EF5009E12E
:103A0000F2C1E9FFF3C1EAFF130EEB50E81C01011C
:103A10008517F2C1E9FFF3C1EAFF0C0EE926000E9B
:103A2000EA22FC0EDBCFEEFFFD0EDBCFEDFFDF5019
:103A3000F212F6EC05F0E552E552E5CFDAFFE7CFFA
:043A4000D9FF120098
:0C3A44005EEC22F0FB0EDBCFF3FFDB0694
:103A5000F35000090AE0ACEC22F0FA0E17EC23F068
:103A6000F3E1151CF1E1010E01D0000E8DEF22F003
:103A70005EEC22F03B0EE12402E3E168E652E16EE7
:103A8000010EDB6A020EDB6AF90EDBCFF6FFFA0EDF
:103A9000DBCFF7FFFB0EDBCFF8FF0800F550DF6E42
:103AA000DF5002E1B1EF21F0250EDF5C02E0A4EF70
:103AB00021F0030EDB6A040EDB6A050EDB6A060EDC
:103AC000DB6A070EDB6AC6EC21F02D0EDF5C0CE032
:103AD0002B0EDF5C09E0200EDF5C06E0230EDF5CCE
:103AE00003E0300EDF5C1AE1DF50300A14E0130A05
:103AF0000FE0030A0AE00B0A05E0060AE4E1030E00
:103B0000DB80E1D7030EDB82DED7030EDB84DBD75D
:103B1000030EDB86D8D7030EDB88D5D72A0EDF5CF1
:103B20001BE1C2EC21F010EC22F010E0030EDB8070
:103B300008680968130EDBCF0DF0140EDBCF0EF012
:103B4000E7EC2EF0040E06C0DBFF03D0130EF9ECF9
:103B500021F0C6EC21F00BD0090EDB6A67EC22F0F5
:103B600003E0DBEC22F0FAD7090EF9EC21F0030EAA
:103B7000DBB0DB982E0EDF5C1BE1C6EC21F02A0ED9
:103B8000DF5C0BE1C2EC21F010EC22F003E1130E3C
:103B90004BEC22F0C6EC21F00BD0090EDB6A67EC8F
:103BA00022F003E0DBEC22F0FAD7090E4BEC22F016
:103BB000680EDF5C07E1C6EC21F0680EDF5C1DE1FA
:103BC000030E18D0740EDF5C17E07A0EDF5C14E091
:103BD000480EDF5C06E0540EDF5C03E05A0EDF5C4B
:103BE00002E1020E07D06C0EDF5C03E06A0EDF5CC0
:103BF00004E1010E9EEC22F0C9DBDF506E0A01E108
:103C00007FD31E0A01E192D1200A01E18FD13F0A40
:103C100001E149D11A0A01E146D10D0A01E143D17E
:103C2000200A01E140D13A0A01E13DD1200A01E137
:103C30003AD1260A01E135D10D0A01E132D11A0A41
:103C400001E1D9D0200A4AE0300A1FE0460A0EE01E
:103C5000250A01E083D3D950F90FE96EFF0EDA206F
:103C6000EA6E010EEE5E000EEE5AEE5AACEC22F059
:103C7000250EE66E95DB03E1151C01E169D3A8EC86
:103C800022F001E26BD3DB2A69D3080EDB6A040E53
:103C9000DB50010806E2040EDB0470EC22F0DB507E
:103CA0008BDB080EDB5009E0030EDB50010B05E156
:103CB00072DB01E04DD3080EDB6A64DBEFCFDFFF80
:103CC00020EC23F003E1151C01E142D3A8EC22F023
:103CD00001E3DB2A60DB01E141D33AD3070EDB507D
:103CE00002080FE1ECEC22F0030EB3EC22F00E0E12
:103CF000EECFDBFF0F0EEECFDBFF100EEECFDBFFC4
:103D000020D0F70EDBCF17F0F80EDBCF18F0020E45
:103D1000175E000E185AF70E17C0DBFFF80E18C01A
:103D2000DBFF17C0E9FF18C0EAFFA3EC22F0166A18
:103D30000E0E14C0DBFF0F0E15C0DBFF100E16C0F9
:103D4000DBFF0E0EDBCFE6FF0F0EDBCFE6FF100E24
:103D5000DBCFE6FF15EC3AF0E552E552E552130EE3
:103D600007C0DBFF140E08C0DBFF060EDB5005E0CA
:103D7000130EE7EC22F001E26ADB0BEC23F002E227
:103D8000130E37DBCEEC22F006E0040EE7EC22F057
:103D900002E2050E2EDB030EDBB005D0FCDA01E0FB
:103DA000D7D2080EDB6A090EDB6A0E0EDBCFF6FFF8
:103DB0000F0EDBCFF7FF100EDBCFF8FF0800F5503A
:103DC000DF6EDF5014E011EC23F011E220EC23F061
:103DD00003E1151C01E1BCD2BBDB01E3DB2A090EC8
:103DE000DB2AD9500E0FE96E000ECBDBE7D7D3DA12
:103DF00001E1B4D2ADD2C6DA110EEECFDBFF120E66
:103E0000EDCFDBFF110EDBCFE6FF120EDBCFE6FFBF
:103E100007EC3AF0E552E552130EF3CFDBFF140E38
:103E2000F4CFDBFF060EDB5004E0130ED0DB01E223
:103E30000EDB0BEC23F002E2130EDBDAAFDB05E066
:103E4000040EC5DB02E2050ED4DA030EDBB005D0AA
:103E5000A2DA01E07DD2080EDB6A090EDB6A110EE0
:103E6000DBCFE9FF120EDBCFEAFFEFCFDFFFDF5042
:103E700014E0D7DB12E2E4DB03E1151C01E168D2B8
:103E800067DB01E3DB2A090EDB2A110EDB2ADBCF1D
:103E9000E9FF120EE8E3DB2AE6D77DDA01E15ED224
:103EA00057D2030EDB8E070EDB0410E195DB040E08
:103EB0005ADB0A0EEECFDBFF0B0EEECFDBFF0C0E54
:103EC000EECFDBFF0D0EEECFDBFF6CD0070EDB502D
:103ED00003082CE1030EDBAE0DD0B2DA020E76DA67
:103EE000EFCF14F0156A166A176A14AE39D0156848
:103EF000166835D0F70EDBCF15F0F80EDBCF16F0D5
:103F0000020E155E000E165AF70E15C0DBFFF80EF6
:103F100016C0DBFF15C0E9FF16C0EAFFEFCF14F0B3
:103F20000A0E14C0DBFF0B0EDB6A38D0070EDB5025
:103F3000020809E1030EDBAE04D059DB16AE10D047
:103F40000ED055DB0DD0030EDBAE12D079DA020EA7
:103F50003DDAF9DA166A176A15AE02D016681768E4
:103F6000E2DA0C0E16C0DBFF0D0E17C0DBFF1AD015
:103F7000F70EDBCF16F0F80EDBCF17F0020E165E51
:103F8000000E175AF70E16C0DBFFF80E17C0DBFF46
:103F900016C0E9FF17C0EAFFD6DAC5DA0C0EDB6AF5
:103FA0000D0EDB6A060EDB5005E1010EF36E050E09
:103FB000F3CFDBFF150EDB6A160EDB6AD950370F25
:103FC000146E000EDA20156E390E14C0DBFF3A0EA7
:103FD00015C0DBFF380EDB6A080EDB6A0A0EAEDAAC
:103FE000DF50780A12E0200A10E0280A0CE0200ACC
:103FF0000AE03F0A06E00D0A02E0200A08E1020E8C
:1040000005D0080E03D0080EDF26100E97DA030E37
:10401000DBBE02D0DB92DB94DB50800B24E08ADA3B
:10402000D890030EEB50000A08E6000EEE5C000E7E
:10403000EE58000EEE58000EEE5815E213DA0B683B
:104040000C680D680E68CFEC39F00A0E02C0DBFF79
:104050000B0E03C0DBFF0C0E04C0DBFF0D0E05C012
:10406000DBFF2D0E08D0030EDBA202D02B0E03D0F7
:10407000DBA408D0200EF36E170EF3CFDBFF150E76
:10408000DB2A02D0170EDB6A050EDB5003E1B7D93D
:1040900001E189D0CC0E146E7A0E156E000E166EEC
:1040A000070EDBCF17F0186A196A1A6A17C00BF0EF
:1040B00018C00CF019C00DF01AC00EF0D3D9A2EC44
:1040C0003BF014500224F36E15500320F46E16508A
:1040D0000420F86EF4CFF7FFF3CFF6FF0800090EC7
:1040E000F5CFDBFF580EDF5C0FE1610EF36E090EBA
:1040F0007BD90AE3200E146E090EDBCFE7FF1450C4
:10410000E75E090EE7CFDBFF070EDBCF14F0156A81
:10411000166A176A0FDA14C00BF015C00CF016C03F
:104120000DF017C00EF0EECF06F0EECF07F0EECF99
:1041300008F0EFCF09F0A2EC3BF009C0EDFF08C09A
:10414000EDFF07C0EDFF06C0EFFF390EDBCFE9FF43
:10415000DB063A0EDBCFEAFF01E2DB06090EDBCF1E
:10416000EFFF150EDB2A4BD995E1030EDBA61DD020
:104170006F0EDF5C06E1C1D918E3150EDB285BDAB0
:1041800014D0780EDF5C09E0580EDF5C06E0620EAA
:10419000DF5C03E0420EDF5C08E1020EF36E160EF8
:1041A000F3CFDBFF02D0150EDB6A030EDB50100BE2
:1041B0000EE0040EDBCF14F0050EDB50D880145453
:1041C00006E2060EDB5003E1040EDB5034DA95D92B
:1041D0000AE2050EDBCFE7FF150EDB50E75E050EAA
:1041E000E7CFDBFF02D0050EDB6A040EDBCF14F055
:1041F000160E45D9D880145414E2160EDBCFE6FF14
:10420000150EDBCFE6FF040EDBCFE6FF050EDB501D
:10421000E552E75CE552D880E754E552D880E75490
:104220005FD9030EDB50010B0BE1080EDB5008E0F9
:10423000B2D801E08DD0080EDB50BED8080EDB6A84
:10424000170EDB5007E088D9170EF1D903E1151CD2
:1042500001E17ED0160EDB5016E07ED9300EE66E00
:104260009FD802E1151C74E077D9DFCFE6FF17EC89
:1042700039F0E552E552E552F4CF15F00001F31C98
:1042800002E1151C65E0050EDBCF14F0160EDB50C5
:10429000D880145409E2050EDBCFE7FF160EDB5081
:1042A000E75E050EE7CFDBFF300EE66E050ECBD9DD
:1042B0004FE1390EDB2ADBCFE9FF3A0E01E3DB2ABF
:1042C000DBCFEAFF090EEFCFDBFFDB500EE044D976
:1042D000090EADD902E1151C3BE0390EDB2ADBCF1C
:1042E000E9FF3A0EEDE3DB2AEBD755D831E1160EA4
:1042F000DBCFE6FF080EC3D8E552E7245DD82ED009
:10430000070EDB50030A1CE0010A14E0030A07E071
:104310007BD9DBCFEEFF020EDBCFEDFF1FD0F5D850
:10432000196A17AE02D0186819682CD8BCD819C001
:10433000EEFF14D0EAD817BE186824D8B4D80ED02F
:1043400063D9DBCFEFFF0AD07BD905E1151C03E170
:10435000F368F46810D0FCD801E3DB2A79D94DEF7B
:104360001DF0010EDBCF14F0020EDBCF15F014C0F0
:10437000F3FF15C0F4FF3B0EE15C02E2E16AE55297
:10438000E16ECBD029D9020EB3EF22F061D908003B
:10439000F550DF6E1200200EE66E080E23EF23F0BC
:1043A00017EC39F0E552E552E552F3CF14F0F4CFB3
:1043B00015F00001F31C1200146E156AD950010F9C
:1043C0004DD91450EE261550ED221200185E000E45
:1043D000195AF70E18C0DBFFF80E19C0DBFF18C022
:1043E000E9FF19C0EAFF1200DBCFF4FFF350F45CE1
:1043F0001200DB50E76E040EE7CFDBFF12000A0E5F
:10440000DBCF14F00B0EDBCF15F00C0EDBCF16F06C
:104410000D0EDBCF17F014501510161017101200E8
:10442000130EEECFDBFF140EEDCFDBFF130EDBCF51
:1044300014F0140EDBCF15F00001800E15141200DD
:10444000F70EDBCF18F0F80EDBCF19F01200050ED7
:10445000DB50E66ED950130F01D9E552E750EE6EEE
:10446000ED6A12000A0EDBCF06F00B0EDBCF07F071
:104470000C0EDBCF08F00D0EDBCF09F01200DBCF06
:10448000E6FF150EDBCFE6FF050EDB50E552E72415
:10449000E552E7241200DB50CED8010EF36E060E73
:1044A000F3CFDBFF1200EE50EFCFEAFFE96E16C04C
:1044B000EEFF17C0EEFF18C0EEFF1200D9CFE6FFE7
:1044C000DACFE6FFE1CFD9FFE2CFDAFF1200DFCF8C
:1044D000E6FFE66AFEEC3CF0E552E552F3501200CE
:1044E000E76E080EE7CFDBFF1200EECF14F0EECF41
:1044F00015F0EFCF16F0176A1200050EDBCF14F09F
:10450000150EDB50D88014541200010EDBCF16F0CC
:10451000020EDBCF17F0186A1200E552E5CFDAFF82
:10452000E7CFD9FF12000A0E14C0DBFF0B0E15C037
:10453000DBFF1200D9500A0F2EEF23F0F36E070EA7
:10454000F3CFDBFF1200EECF14F0EFCF15F0120027
:10455000010EDB2A020E1200FC0EDBCFE6FFFD0E81
:10456000DBCFE6FF1200145E000E155AF70E14C0E2
:10457000DBFFF80E15C0DBFF14C0E9FF15C0EAFF32
:104580001200DA20EA6EEF2AEECFF6FF000EEF22DD
:10459000EECFF7FFEF22EECFF8FF1200040EDBCFD5
:1045A000E6FF130EDB50E552E75C9ADFDB5004DFD9
:1045B000060EDB501200090EDB500A0DF350DF240B
:1045C000D00FE76E090EE7CFDBFFC6EF21F0DB501F
:1045D000F36E050EF4EF21F0F70EDBCF14F0F80EBA
:1045E000DBCF15F01200DFCFE6FFD0EF21F028DFA0
:1045F000030EECDE75EF22F022EC1DF0E552E552E1
:10460000E552E55200091200BDDEEE50EFCFEAFFA1
:10461000E96E010E1200130EDB50F36E040EF4EF80
:1046200021F0040EDB50F36E090EF4EF21F0DBCF26
:10463000E6FFD0EF21F0E76E050EE7CFDBFF1200BB
:104640008BDFF3EF22F0DBCFE6FF86DFFCEF22F01B
:10465000D950F90FE96EFF0EC1EF22F0E96E000E9E
:06466000DA20EA6E1200F0
:0A466600020EE66E5BEC3DF0E5523B
:1046700012000F0EE66E10EC3DF0E5521200050E32
:10468000E66E10EC3DF0E55212002BEC3CF0000918
:1046900001E0FBD7100EE66E3AEC3AF0E552F70E69
:1046A000E66E710EE66E000EE66E94EC39F0E552A1
:1046B000E552E552100EE66E3AEC3AF0E552EF0E96
:1046C000E66E710EE66E000EE66E94EC39F0E55281
:1046D000E552E5522BEC3CF0000901E0FBD7500E0F
:1046E000E66E3AEC3AF0E552010EE66ED1EC3CF0A3
:1046F000E552E70EE66E710EE66E000EE66E94EC85
:1047000039F0E552E552E5522BEC3CF0000901E0AE
:10471000FBD7580EE66E3AEC3AF0E552010EE66E23
:10472000D1EC3CF0E552DF0EE66E710EE66E000E47
:10473000E66E94EC39F0E552E552E5521200D9CF1D
:10474000E6FFDACFE6FFE1CFD9FFE2CFDAFF0201E1
:10475000FF0525E0980EE66E020EE66E000EE66E90
:10476000E66A99C2E6FF9AC2E6FF8BEC17F0146E78
:10477000060EE15C02E2E16AE552E16E1450640E5D
:10478000E66ED1EC3CF0E552CDEC33F099C2E6FF99
:104790009AC2E6FF54EC18F0E552E552D8D7E66825
:1047A00057EC1AF0E552E552E5CFDAFFE7CFD9FF33
:1047B0001200850EE66E0AEC3CF0E552850EE66EC0
:1047C000B9EC3CF0E5521200D9CFE6FFDACFE6FFB4
:1047D000E1CFD9FFE2CFDAFF2BEC3CF0000901E09A
:1047E000FBD7100EE66E3AEC3AF0E552FC0EDBCF4A
:1047F000E6FFFD0EDBCFE6FF23EC3BF0E552E55292
:10480000260EE66ED1EC3CF0E552E552E5CFDAFF3C
:10481000E7CFD9FF1200D9CFE6FFDACFE6FFE1CF2D
:10482000D9FFE2CFDAFF060EE12402E3E168E652A7
:10483000E16EDE6ADD6A020EDB6A030EDB6A19C313
:1048400007F01AC308F01BC309F01CC30AF05DECA3
:104850002FF008C0DEFF09C0DDFF000EDBCF08F03F
:10486000010EDBCF09F03FEC2DF007C018F008C0B7
:1048700019F009C01AF00AC01BF018C00CF019C0DA
:104880000DF01AC00EF01BC00FF019C307F01AC3C9
:1048900008F01BC309F01CC30AF02AEC2EF007C075
:1048A00014F008C015F009C016F00AC017F00C6A21
:1048B000400E0D6E1C0E0E6E460E0F6E14C007F0ED
:1048C00015C008F016C009F017C00AF0BDEC2DF0B5
:1048D0005DEC2FF0020E08C0DBFF030E09C0DBFF0A
:1048E000DECFE6FFDDCFE6FFD60EE66E710EE66E9A
:1048F000000EE66E040EDBCFE6FF050EDBCFE6FF13
:1049000029EC38F0146E070EE15C02E2E16AE55230
:10491000E16E1450040EDBCFE6FF050EDBCFE6FFA1
:1049200053DFE552E552060EE15C02E2E16AE55230
:10493000E16EE552E5CFDAFFE7CFD9FF12009E9492
:104940009D849F949E909F909D809484120082509D
:10495000800B24E18250100B21E18250200B1EE1DC
:104960008250400B1BE12BEC3CF0000901E0FBD72F
:10497000400EE66E3AEC3AF0E552140EE66E10EC9C
:104980003DF0E552D40EE66E710EE66E000EE66E58
:1049900094EC39F0E552E552E5523DD28250800B5D
:1049A00028E18250100B25E08250200B22E182503A
:1049B000400B1FE12BEC3CF0000901E0FBD7400E5F
:1049C000E66E3AEC3AF0E552140EE66E10EC3DF06D
:1049D000E552D20EE66E710EE66E000EE66E94ECB7
:1049E00039F0E552E552E5520301006B0301016B1A
:1049F00012D28250800B2AE18250100B27E18250A4
:104A0000200B24E08250400B21E12BEC3CF000090C
:104A100001E0FBD7400EE66E3AEC3AF0E552140E98
:104A2000E66E10EC3DF0E552D00EE66E710EE66ECD
:104A3000000EE66E94EC39F0E552E552E552010EB7
:104A4000E66EF5EC3AF0E55220DEE5D18250800BBF
:104A500024E18250100B21E08250200B1EE0825096
:104A6000400B1BE12BEC3CF0000901E0FBD7400EB2
:104A7000E66E3AEC3AF0E552140EE66E10EC3DF0BC
:104A8000E552CE0EE66E710EE66E000EE66E94EC0A
:104A900039F0E552E552E552BED18250800B24E157
:104AA0008250100B21E18250200B1EE18250400BFE
:104AB0001BE02BEC3CF0000901E0FBD7400EE66E5A
:104AC0003AEC3AF0E552140EE66E10EC3DF0E55289
:104AD000CC0EE66E710EE66E000EE66E94EC39F0CA
:104AE000E552E552E55297D18250800B24E1825085
:104AF000100B21E08250200B1EE18250400B1BE086
:104B00002BEC3CF0000901E0FBD7400EE66E3AECDE
:104B10003AF0E552140EE66E10EC3DF0E552CA0E86
:104B2000E66E710EE66E000EE66E94EC39F0E5521C
:104B3000E552E55270D18250800B24E18250100B77
:104B400021E18250200B1EE08250400B1BE02BEC39
:104B50003CF0000901E0FBD7400EE66E3AEC3AF07B
:104B6000E552140EE66E10EC3DF0E552C80EE66E0E
:104B7000710EE66E000EE66E94EC39F0E552E552E9
:104B8000E55249D18250800B24E18250100B21E084
:104B90008250200B1EE08250400B1BE02BEC3CF0BF
:104BA000000901E0FBD7400EE66E3AEC3AF0E55220
:104BB000140EE66E10EC3DF0E552C60EE66E710E78
:104BC000E66E000EE66E94EC39F0E552E552E552E1
:104BD00022D18250800B25E08250100B22E18250BE
:104BE000200B1FE18250400B1CE12BEC3CF0000934
:104BF00001E0FBD7400EE66E3AEC3AF0E5520A0EC1
:104C0000E66E10EC3DF0E5520301005106E1F2883A
:104C1000A0822BEC37F019EC36F00301010E006F87
:104C2000FAD08250800B24E08250100B21E0825099
:104C3000200B1EE18250400B1BE12BEC3CF00009E5
:104C400001E0FBD7400EE66E3AEC3AF0E552140E66
:104C5000E66E10EC3DF0E552C40EE66E710EE66EA7
:104C6000000EE66E94EC39F0E552E552E552D3D0F1
:104C70008250800B24E08250100B21E18250200BE7
:104C80001EE08250400B1BE12BEC3CF0000901E0E0
:104C9000FBD7400EE66E3AEC3AF0E552140EE66EA3
:104CA00010EC3DF0E552C20EE66E710EE66E000E9F
:104CB000E66E94EC39F0E552E552E552ACD0825004
:104CC000800B24E08250100B21E08250200B1EE06C
:104CD0008250400B1BE12BEC3CF0000901E0FBD7BC
:104CE000400EE66E3AEC3AF0E552140EE66E10EC29
:104CF0003DF0E552C00EE66E710EE66E000EE66EF9
:104D000094EC39F0E552E552E55285D08250800BA3
:104D10001AE08250100B17E18250200B14E18250F0
:104D2000400B11E02BEC3CF0000901E0FBD7400EFA
:104D3000E66E3AEC3AF0E552140EE66E10EC3DF0F9
:104D4000E552A3DC68D08250800B24E08250100B27
:104D500021E08250200B1EE18250400B1BE02BEC27
:104D60003CF0000901E0FBD7400EE66E3AEC3AF069
:104D7000E552140EE66E10EC3DF0E552BE0EE66E06
:104D8000710EE66E000EE66E94EC39F0E552E552D7
:104D9000E55241D08250800B24E08250100B21E17B
:104DA0008250200B1EE08250400B1BE02BEC3CF0AD
:104DB000000901E0FBD7400EE66E3AEC3AF0E5520E
:104DC000140EE66E10EC3DF0E552BC0EE66E710E70
:104DD000E66E000EE66E94EC39F0E552E552E552CF
:104DE0001AD02BEC3CF0000901E0FBD7400EE66E38
:104DF0003AEC3AF0E552140EE66E10EC3DF0E55256
:104E0000BA0EE66E710EE66E000EE66E94EC39F0A8
:104E1000E552E552E5521200D9CFE6FFDACFE6FFC0
:104E2000E1CFD9FFE2CFDAFFE652E652E652E65290
:104E3000E652010EDB6A020EDB6A030EDB6A040E29
:104E4000DB6AF0A002D0F09082DDF2A206D0F292EE
:104E50000301000502E11EEC37F0A1A211D0A192DE
:104E6000130E0301015D0AE10301016B0301006BF5
:104E700058EC36F0A092F29A6FEC3DF00301012B52
:104E8000010E146E9E50010B145C05E19E9003010F
:104E90000B2B000E0C23010E146E9E50040B01E030
:104EA000010E145C01E030D19E94030107510811FA
:104EB00012E103011151121107E1C6EC3BF0F3CFEF
:104EC00003F3F4CF04F306D0C6EC3BF0F3CF05F3C5
:104ED000F4CF06F311D0010E0301071902E1000E11
:104EE00008190AE103011151121106E1C6EC3BF069
:104EF000F3CF05F3F4CF06F30301072B000E0823CD
:104F00000301010ED8800755000E085507E3030181
:104F1000010E111901E1125101E0F4D0010E03015B
:104F2000116F126B0BC31AF00CC31BF01C6A0C68D8
:104F30000D680E6A1AC007F01BC008F01CC009F00B
:104F400014EC2FF004C01AF005C01BF006C01CF0D2
:104F500005C31DF006C31EF01F6A1A501D24176EEC
:104F60001B501E20186E1C501F20196E03C320F00A
:104F700004C321F0226A2050175C146E2150185887
:104F8000156E22501958166E14C007F015C008F09F
:104F900016C009F054EC2DF0010E07C0DBFF020E25
:104FA00008C0DBFF030E09C0DBFF040E0AC0DBFFF5
:104FB0000301152B000E162305C30FF306C310F3D0
:104FC0000FC303F310C304F309C308F00AC309F0C5
:104FD0003DEC2DF007C014F008C015F009C016F024
:104FE0000AC017F00C6A0D6A7A0E0E6E440E0F6E30
:104FF00014C007F015C008F016C009F017C00AF079
:105000006AEC2DF0010E07C0DBFF020E08C0DBFFCB
:10501000030E09C0DBFF040E0AC0DBFF010EDBCF6D
:1050200014F0020EDBCF15F0030EDBCF16F0040EEA
:10503000DBCF17F00C6A0D6A480E0E6E420E0F6E33
:1050400014C007F015C008F016C009F017C00AF028
:105050008CEC2FF0010A04E10301172B000E18233A
:105060000301076B086B03010A0ED8801555000E6B
:10507000165548E217C308F018C309F03DEC2DF0AF
:1050800007C014F008C015F009C016F00AC017F0E8
:105090000C6A0D6A200E0E6E410E0F6E14C007F0E2
:1050A00015C008F016C009F017C00AF06AEC2DF020
:1050B00007C019F308C01AF309C01BF30AC01CF398
:1050C0000C6A0D6AC80E0E6E420E0F6E19C307F001
:1050D0001AC308F01BC309F01CC30AF0BDEC2DF085
:1050E00007C019F308C01AF309C01BF30AC01CF368
:1050F000010E0301136F146B78EC3DF075EC3DF07D
:105100009D949D900BEC24F0050EE15C02E2E16AB7
:10511000E552E16EE552E5CFDAFFE7CFD9FF1200A5
:105120001CEC00F0F28EF28AF086F090F292A082EF
:10513000A19293829380948C948A9488948E9F0EEB
:10514000E66E82EC3CF0E552190EE66E110EE66E4C
:1051500066EC3CF0E552E552010EE66E9B0EE66E03
:10516000020EE66E000EE66EE66A3E0EE66E470E34
:10517000E66E000EE66E94EC19F0146E080EE15C1B
:1051800002E2E16AE552E16E1450010EE66EE66A53
:10519000F3EC15F0E552E552F3CF99F2F4CF9AF221
:1051A0002B0EE66EB3EC37F0E5522BEC3CF0000929
:1051B00001E0FBD70C0EE66EF5EC3AF0E5522BEC75
:1051C0003CF0000901E0FBD7010EE66EF5EC3AF089
:1051D000E5522BEC3CF0000901E0FBD7060EE66E31
:1051E000F5EC3AF0E55245EC23F0C7EC00F0120084
:1051F000D9CFE6FFDACFE6FFE1CFD9FFE2CFDAFF82
:10520000E652E652E652DF6A010EDB6A020EDB6A04
:105210008C968D84A5DA8A848D90899A0F0EE66E1D
:105220005BEC3DF0E5528D948C868B90010EDB6A31
:10523000020EDB6A010EDBCF14F0020EDBCF15F09D
:10524000D890155004E6080E145C000E155810E2B4
:105250008950400B01E0010EDF12DF50E824DF6EC1
:105260008B808B90010EDB2A020E01E3DB2AE2D752
:10527000898A8D80DF5000D0E552E552E552E55233
:10528000E5CFDAFFE7CFD9FF1200D9CFE6FFDACFBB
:10529000E6FFE1CFD9FFE2CFDAFFE65290D9FC0E6C
:1052A000DBCFE6FFFD0EDBCFE6FF56D8E552E55239
:1052B0009FDFDF6EDF5000D0E552E552E5CFDAFF29
:1052C000E7CFD9FF1200D9CFE6FFDACFE6FFE1CF73
:1052D000D9FFE2CFDAFFE652E65289948A968D92A0
:1052E000080EDE6EDD6AD9CFE9FFDACFEAFF000EE5
:1052F000D880EE54000EED5427E2FC0EDBCF16F002
:10530000FD0EDBCF17F0DECF18F0DDCF19F0080E61
:10531000D8801856000E1956185016C014F017C031
:1053200015F005E0D89015321432E804FBE1010EC7
:105330001414E8B08986E8A089968A988A88DF06DE
:10534000010E01E2DB06CFD7E552E552E552E5CF8B
:10535000DAFFE7CFD9FF1200D9CFE6FFDACFE6FFB9
:10536000E1CFD9FFE2CFDAFF060EE12402E3E168E4
:10537000E652E16EFC0EDBCF14F0FD0EDBCF15F034
:10538000100ED89015321432E804FBE114C0DEFF91
:1053900015C0DDFFFC0EDBCF14F0FD0EDBCF15F0EA
:1053A00015C014F0156A020E14C0DBFF030E15C001
:1053B000DBFFFC0EDBCF08F0FD0EDBCF09F0040EA7
:1053C00008C0DBFF050E09C0DBFF8D928A96040E34
:1053D000DBCFE6FF050EDBCFE6FF75DFE552E552DA
:1053E000020EDBCFE6FF030EDBCFE6FF6CDFE552FC
:1053F000E552DECFE6FFDDCFE6FF65DFE552E552A1
:10540000B5D8060EE15C02E2E16AE552E16EE552D2
:10541000E5CFDAFFE7CFD9FF1200D9CFE6FFDACF29
:10542000E6FFE1CFD9FFE2CFDAFF060EE12402E387
:10543000E168E652E16EFC0EDBCF14F0FD0EDBCF2F
:1054400015F0100ED89015321432E804FBE114C0A8
:10545000DEFF15C0DDFFFC0EDBCF14F0FD0EDBCF51
:1054600015F015C014F0156A020E14C0DBFF030E10
:1054700015C0DBFFFC0EDBCF08F0FD0EDBCF09F023
:10548000040E08C0DBFF050E09C0DBFFFB0EDBCFFF
:10549000E6FFE66A18DFE552E552040EDBCFE6FFD1
:1054A000050EDBCFE6FF0FDFE552E552020EDBCF44
:1054B000E6FF030EDBCFE6FF06DFE552E552DECF67
:1054C000E6FFDDCFE6FFFFDEE552E55259D862D8B0
:1054D000060EE15C02E2E16AE552E16EE552E5CFDB
:1054E000DAFFE7CFD9FF1200D9CFE6FFDACFE6FF28
:1054F000E1CFD9FFE2CFDAFFFC0EDBCFE6FFFD0EF6
:10550000DBCFE6FF2FD9E552E552AA0EE66E550E27
:10551000E66E550EE66E81DFE552E552E552550E18
:10552000E66EAA0EE66E2A0EE66E77DFE552E552CB
:10553000E552A00EE66E550EE66E550EE66E6DDF78
:10554000E552E552E552FB0EDBCFE6FFFC0EDBCF6A
:10555000E6FFFD0EDBCFE6FF60DFE552E552E552E8
:10556000E552E5CFDAFFE7CFD9FF12008C968D9296
:105570008A98898489948A868D90899A8A8412006F
:105580008C968A98898489948A868D828D90898A5E
:105590008A9412008A948D908A848D808A848D905A
:1055A0008A848D801200DCD8898A8A848D8000D01C
:1055B0001200D6D8898A8A948D9000D01200CED855
:1055C0008A848D80898A00008D90899A00D012008B
:1055D000C5D88A948D80898A00D01200D9CFE6FF81
:1055E000DACFE6FFE1CFD9FFE2CFDAFFE652E652AB
:1055F000E652E652DE6ADD6A020EDB6A030EDB6A01
:10560000AFD8190EE66E10EC3DF0E5528D70897A38
:105610008A84EEDDDE6EDD6A1468156ADF501418C8
:1056200003E1DE52DD50151808E1010EF36E020EA3
:10563000F3CFDBFF030EDB6A04D0020EDB6A030E3E
:10564000DB6A020EDBCF14F0030EDBCF15F014C0C3
:10565000F3FF15C0F4FF00D0040EE15C02E2E16A42
:10566000E552E16EE552E5CFDAFFE7CFD9FF120050
:10567000D9CFE6FFDACFE6FFE1CFD9FFE2CFDAFFFD
:10568000060EE12402E3E168E652E16EDE6ADD6ABD
:10569000020EDB6A030EDB6A040EDB6A050EDB6AB0
:1056A0005FD8020EE66E5BEC3DF0E5528D70897AB4
:1056B0008A849EDDDE6EDD6AFD0EDB5002E0000EA8
:1056C00001D0010E146E156A14BE1568020E14C0C6
:1056D000DBFF030E15C0DBFFDECF16F0DDCF17F0CA
:1056E000070ED89017321632E804FBE1020EDBCF2A
:1056F00018F0030EDBCF19F0070ED89019321832CC
:10570000E804FBE116501818146E17501918156E9E
:105710001450151005E1040EDB6A050EDB6A07D094
:10572000010EF36E040EF3CFDBFF050EDB6A040EF1
:10573000DBCF14F0050EDBCF15F014C0F3FF15C05E
:10574000F4FF00D0060EE15C02E2E16AE552E16E90
:10575000E552E5CFDAFFE7CFD9FF12008D821200C4
:105760008D921200D9CFE6FFDACFE6FFE1CFD9FF65
:10577000E2CFDAFF1EDFFC0EDBCF14F0FD0EDBCF35
:1057800015F01438146AF00B156EFC0E14C0DBFF14
:10579000FD0E15C0DBFFFC0EDBCF14F0FD0EDBCFE2
:1057A00015F0166A146AF00E1516070E1616FC0E82
:1057B00014C0DBFFFD0E15C0DBFFAA0EE66E550E12
:1057C000E66E550EE66E29DEE552E552E552550EBF
:1057D000E66EAA0EE66E2A0EE66E1FDEE552E55272
:1057E000E552800EE66E550EE66E550EE66E15DE3F
:1057F000E552E552E552AA0EE66E550EE66E550EDE
:10580000E66E0BDEE552E552E552550EE66EAA0E47
:10581000E66E2A0EE66E01DEE552E552E552300EE6
:10582000E66EFC0EDBCFE6FFFD0EDBCFE6FFF5DD1F
:10583000E552E552E552E552E5CFDAFFE7CFD9FF71
:105840001200D9CFE6FFDACFE6FFE1CFD9FFE2CFF2
:10585000DAFFE652E652E652E652E652DE6ADD6AC8
:10586000020EDB6A030EDB6A040EDB6A9CDEAA0E04
:10587000E66E550EE66E550EE66ECFDDE552E5524C
:10588000E552550EE66EAA0EE66E2A0EE66EC5DDF0
:10589000E552E552E552900EE66E550EE66E550E57
:1058A000E66EBBDDE552E552E5525ADFE66A000ED0
:1058B000E66EE66AB2DDE552E552E55299DCDE6E4F
:1058C000DD6AE66A010EE66EE66AA7DDE552E5529C
:1058D000E5528EDCE66ED950020FE96E000EDA203A
:1058E000EA6EE552E750EE6EED6AD9CFE9FFDACF06
:1058F000EAFFBF0EEE1801E1ED500EE1D950020FA4
:10590000E96E000EDA20EA6EB70EEE1801E1ED50F6
:1059100003E1040EDB6805D0AA0EF36E040EF3CF8C
:10592000DBFF1CDFAA0EE66E550EE66E550EE66E28
:1059300074DDE552E552E552550EE66EAA0EE66EAE
:105940002A0EE66E6ADDE552E552E552F00EE66E8D
:10595000550EE66E550EE66E60DDE552E552E552F7
:10596000640EE66E10EC3DF0E552040EDB5000D004
:10597000146E050EE15C02E2E16AE552E16E14503C
:10598000E552E5CFDAFFE7CFD9FF1200D9CFE6FF26
:10599000DACFE6FFE1CFD9FFE2CFDAFFFC0EDBCFB3
:1059A000E6FFFD0EDBCFE6FFDDDEE552E552FBDD77
:1059B000AA0EE66E550EE66E550EE66E2EDDE5522B
:1059C000E552E552550EE66EAA0EE66E2A0EE66E1A
:1059D00024DDE552E552E552A00EE66E550EE66E68
:1059E000550EE66E1ADDE552E552E552F80EDBCFB4
:1059F000E6FFFA0EDBCFE6FFFB0EDBCFE6FF0DDDA9
:105A0000E552E552E552E4DDE552E5CFDAFFE7CFB6
:105A1000D9FF1200D9CFE6FFDACFE6FFE1CFD9FFF9
:105A2000E2CFDAFFE652E652DE6ADD6AC8DDE66AF8
:105A3000FC0EDBCFE6FFFD0EDBCFE6FFEEDCE55232
:105A4000E552E552F8EC28F0DE6EDD6ADF5000D05A
:105A5000E552E552E552E5CFDAFFE7CFD9FF120074
:105A600096909394929A93989294939696929296F3
:0A5A7000959694909694928C120083
:065A7A00019E08D0019E10
:105A800009AE05D0086C091EE86A0922018E09C01A
:105A900003F008C002F0136A126A8E0E046E056AE3
:105AA00006EF30F0019E0AD0019E09AE07D0076CC8
:105AB000081E091EE86A08220922018E09C003F0A7
:105AC00008C002F007C013F0126A960E046E056A51
